{
  "_format": "hh-sol-artifact-1",
  "contractName": "Dungeon",
  "sourceName": "contracts/Dungeons/Dungeon.sol",
  "abi": [
    {
      "inputs": [
        {
          "internalType": "address",
          "name": "_vrf",
          "type": "address"
        },
        {
          "internalType": "address",
          "name": "_gold",
          "type": "address"
        }
      ],
      "stateMutability": "nonpayable",
      "type": "constructor"
    },
    {
      "anonymous": false,
      "inputs": [
        {
          "indexed": false,
          "internalType": "uint256",
          "name": "dungeonId",
          "type": "uint256"
        }
      ],
      "name": "DungeonLost",
      "type": "event"
    },
    {
      "anonymous": false,
      "inputs": [
        {
          "indexed": false,
          "internalType": "uint256",
          "name": "dungeonId",
          "type": "uint256"
        }
      ],
      "name": "DungeonPlayed",
      "type": "event"
    },
    {
      "anonymous": false,
      "inputs": [
        {
          "indexed": false,
          "internalType": "uint256",
          "name": "dungeonId",
          "type": "uint256"
        }
      ],
      "name": "DungeonWon",
      "type": "event"
    },
    {
      "inputs": [],
      "name": "dungeonCount",
      "outputs": [
        {
          "internalType": "uint256",
          "name": "",
          "type": "uint256"
        }
      ],
      "stateMutability": "view",
      "type": "function"
    },
    {
      "inputs": [
        {
          "internalType": "uint256",
          "name": "",
          "type": "uint256"
        }
      ],
      "name": "dungeonOwner",
      "outputs": [
        {
          "internalType": "address",
          "name": "",
          "type": "address"
        }
      ],
      "stateMutability": "view",
      "type": "function"
    },
    {
      "inputs": [
        {
          "internalType": "uint256",
          "name": "",
          "type": "uint256"
        }
      ],
      "name": "dungeonStatus",
      "outputs": [
        {
          "internalType": "enum Dungeon.DungeonStatus",
          "name": "",
          "type": "uint8"
        }
      ],
      "stateMutability": "view",
      "type": "function"
    },
    {
      "inputs": [
        {
          "internalType": "uint256",
          "name": "dungeonId",
          "type": "uint256"
        }
      ],
      "name": "finalizeDungeon",
      "outputs": [],
      "stateMutability": "nonpayable",
      "type": "function"
    },
    {
      "inputs": [],
      "name": "gold",
      "outputs": [
        {
          "internalType": "contract Gold",
          "name": "",
          "type": "address"
        }
      ],
      "stateMutability": "view",
      "type": "function"
    },
    {
      "inputs": [
        {
          "components": [
            {
              "components": [
                {
                  "internalType": "contract PlayerSheet",
                  "name": "playerSheet",
                  "type": "address"
                },
                {
                  "internalType": "uint256",
                  "name": "tokenId",
                  "type": "uint256"
                }
              ],
              "internalType": "struct IDungeon.Player[]",
              "name": "players",
              "type": "tuple[]"
            },
            {
              "internalType": "enum IDungeon.PlayMode",
              "name": "mode",
              "type": "uint8"
            }
          ],
          "internalType": "struct IDungeon.Party",
          "name": "party",
          "type": "tuple"
        }
      ],
      "name": "playDungeon",
      "outputs": [],
      "stateMutability": "nonpayable",
      "type": "function"
    },
    {
      "inputs": [],
      "name": "vrf",
      "outputs": [
        {
          "internalType": "contract VRF",
          "name": "",
          "type": "address"
        }
      ],
      "stateMutability": "view",
      "type": "function"
    }
  ],
  "bytecode": "0x60806040523480156200001157600080fd5b5060405162001a6a38038062001a6a83398181016040528101906200003791906200012a565b816000806101000a81548173ffffffffffffffffffffffffffffffffffffffff021916908373ffffffffffffffffffffffffffffffffffffffff16021790555080600160006101000a81548173ffffffffffffffffffffffffffffffffffffffff021916908373ffffffffffffffffffffffffffffffffffffffff160217905550505062000171565b600080fd5b600073ffffffffffffffffffffffffffffffffffffffff82169050919050565b6000620000f282620000c5565b9050919050565b6200010481620000e5565b81146200011057600080fd5b50565b6000815190506200012481620000f9565b92915050565b60008060408385031215620001445762000143620000c0565b5b6000620001548582860162000113565b9250506020620001678582860162000113565b9150509250929050565b6118e980620001816000396000f3fe608060405234801561001057600080fd5b506004361061007c5760003560e01c806339daf00a1161005b57806339daf00a146100d9578063dbb5c7c014610109578063fbec6f2114610139578063ff6e05fd146101575761007c565b80621c4478146100815780630bdc6fe31461009d5780630c949043146100bb575b600080fd5b61009b60048036038101906100969190610e59565b610173565b005b6100a5610390565b6040516100b29190610e95565b60405180910390f35b6100c3610396565b6040516100d09190610f2f565b60405180910390f35b6100f360048036038101906100ee9190610e59565b6103ba565b6040516101009190610f6b565b60405180910390f35b610123600480360381019061011e9190610e59565b6103ed565b6040516101309190610ffd565b60405180910390f35b61014161040d565b60405161014e9190611039565b60405180910390f35b610171600480360381019061016c91906112d6565b610433565b005b60038081111561018657610185610f86565b5b6002600083815260200190815260200160002060009054906101000a900460ff1660038111156101b9576101b8610f86565b5b036101f9576040517f08c379a00000000000000000000000000000000000000000000000000000000081526004016101f09061137c565b60405180910390fd5b60006003600083815260200190815260200160002060009054906101000a900473ffffffffffffffffffffffffffffffffffffffff1690506001600381111561024557610244610f86565b5b6002600084815260200190815260200160002060009054906101000a900460ff16600381111561027857610277610f86565b5b036102c2577ff545cf42c2b1b8819ba3f032a26f061e0136b6ba84b19029b433e5aa9bc2e0e3826040516102ac9190610e95565b60405180910390a16102bd81610aef565b610350565b600260038111156102d6576102d5610f86565b5b6002600084815260200190815260200160002060009054906101000a900460ff16600381111561030957610308610f86565b5b0361034f577f785f61e3e699e9745e6a26d0d419809f5a532d54b095a45023dc193ae3c8b7e88260405161033d9190610e95565b60405180910390a161034e81610b82565b5b5b60036002600084815260200190815260200160002060006101000a81548160ff0219169083600381111561038757610386610f86565b5b02179055505050565b60045481565b60008054906101000a900473ffffffffffffffffffffffffffffffffffffffff1681565b60036020528060005260406000206000915054906101000a900473ffffffffffffffffffffffffffffffffffffffff1681565b60026020528060005260406000206000915054906101000a900460ff1681565b600160009054906101000a900473ffffffffffffffffffffffffffffffffffffffff1681565b60008160000151511161047b576040517f08c379a00000000000000000000000000000000000000000000000000000000081526004016104729061140e565b60405180910390fd5b60005b8160000151518110156105c9573373ffffffffffffffffffffffffffffffffffffffff16826000015182815181106104b9576104b861142e565b5b60200260200101516000015173ffffffffffffffffffffffffffffffffffffffff16636352211e846000015184815181106104f7576104f661142e565b5b6020026020010151602001516040518263ffffffff1660e01b815260040161051f9190610e95565b602060405180830381865afa15801561053c573d6000803e3d6000fd5b505050506040513d601f19601f820116820180604052508101906105609190611489565b73ffffffffffffffffffffffffffffffffffffffff16146105b6576040517f08c379a00000000000000000000000000000000000000000000000000000000081526004016105ad90611528565b60405180910390fd5b80806105c190611577565b91505061047e565b50600460008154809291906105dd90611577565b91905055503360036000600454815260200190815260200160002060006101000a81548173ffffffffffffffffffffffffffffffffffffffff021916908373ffffffffffffffffffffffffffffffffffffffff160217905550600080600090505b82600001515181101561072c57826000015181815181106106625761066161142e565b5b60200260200101516000015173ffffffffffffffffffffffffffffffffffffffff16637cd7f3bb846000015183815181106106a05761069f61142e565b5b6020026020010151602001516040518263ffffffff1660e01b81526004016106c89190610e95565b602060405180830381865afa1580156106e5573d6000803e3d6000fd5b505050506040513d601f19601f8201168201806040525081019061070991906115f8565b60ff16826107179190611625565b9150808061072490611577565b91505061063e565b5061076c6040518060400160405280600a81526020017f61747461636b3a2025730000000000000000000000000000000000000000000081525082610c15565b60008060009054906101000a900473ffffffffffffffffffffffffffffffffffffffff1673ffffffffffffffffffffffffffffffffffffffff1663dbdff2c16040518163ffffffff1660e01b8152600401602060405180830381865afa1580156107da573d6000803e3d6000fd5b505050506040513d601f19601f820116820180604052508101906107fe919061166e565b905060006001600281111561081657610815610f86565b5b8460200151600281111561082d5761082c610f86565b5b0361083b57600a9050610870565b60028081111561084e5761084d610f86565b5b8460200151600281111561086557610864610f86565b5b0361086f57601490505b5b808261087c91906116ca565b915081831115610a34576108c46040518060400160405280600381526020017f776f6e0000000000000000000000000000000000000000000000000000000000815250610cb1565b6109056040518060400160405280601081526020017f64756e67656f6e436f756e743a20257300000000000000000000000000000000815250600454610c15565b6109796040518060400160405280601181526020017f64756e67656f6e206f776e65723a20257300000000000000000000000000000081525060036000600454815260200190815260200160002060009054906101000a900473ffffffffffffffffffffffffffffffffffffffff16610d4a565b6109b86040518060400160405280600e81526020017f6d73672e73656e6465723a20257300000000000000000000000000000000000081525033610d4a565b600160026000600454815260200190815260200160002060006101000a81548160ff021916908360038111156109f1576109f0610f86565b5b02179055507ff545cf42c2b1b8819ba3f032a26f061e0136b6ba84b19029b433e5aa9bc2e0e3600454604051610a279190610e95565b60405180910390a1610ae9565b610a726040518060400160405280600481526020017f6c6f737400000000000000000000000000000000000000000000000000000000815250610cb1565b6002806000600454815260200190815260200160002060006101000a81548160ff02191690836003811115610aaa57610aa9610f86565b5b02179055507f785f61e3e699e9745e6a26d0d419809f5a532d54b095a45023dc193ae3c8b7e8600454604051610ae09190610e95565b60405180910390a15b50505050565b600160009054906101000a900473ffffffffffffffffffffffffffffffffffffffff1673ffffffffffffffffffffffffffffffffffffffff166340c10f198260646040518363ffffffff1660e01b8152600401610b4d929190611736565b600060405180830381600087803b158015610b6757600080fd5b505af1158015610b7b573d6000803e3d6000fd5b5050505050565b600160009054906101000a900473ffffffffffffffffffffffffffffffffffffffff1673ffffffffffffffffffffffffffffffffffffffff166340c10f1982600a6040518363ffffffff1660e01b8152600401610be092919061179a565b600060405180830381600087803b158015610bfa57600080fd5b505af1158015610c0e573d6000803e3d6000fd5b5050505050565b610cad8282604051602401610c2b929190611831565b6040516020818303038152906040527fb60e72cc000000000000000000000000000000000000000000000000000000007bffffffffffffffffffffffffffffffffffffffffffffffffffffffff19166020820180517bffffffffffffffffffffffffffffffffffffffffffffffffffffffff8381831617835250505050610de6565b5050565b610d4781604051602401610cc59190611861565b6040516020818303038152906040527f41304fac000000000000000000000000000000000000000000000000000000007bffffffffffffffffffffffffffffffffffffffffffffffffffffffff19166020820180517bffffffffffffffffffffffffffffffffffffffffffffffffffffffff8381831617835250505050610de6565b50565b610de28282604051602401610d60929190611883565b6040516020818303038152906040527f319af333000000000000000000000000000000000000000000000000000000007bffffffffffffffffffffffffffffffffffffffffffffffffffffffff19166020820180517bffffffffffffffffffffffffffffffffffffffffffffffffffffffff8381831617835250505050610de6565b5050565b60008151905060006a636f6e736f6c652e6c6f679050602083016000808483855afa5050505050565b6000604051905090565b600080fd5b600080fd5b6000819050919050565b610e3681610e23565b8114610e4157600080fd5b50565b600081359050610e5381610e2d565b92915050565b600060208284031215610e6f57610e6e610e19565b5b6000610e7d84828501610e44565b91505092915050565b610e8f81610e23565b82525050565b6000602082019050610eaa6000830184610e86565b92915050565b600073ffffffffffffffffffffffffffffffffffffffff82169050919050565b6000819050919050565b6000610ef5610ef0610eeb84610eb0565b610ed0565b610eb0565b9050919050565b6000610f0782610eda565b9050919050565b6000610f1982610efc565b9050919050565b610f2981610f0e565b82525050565b6000602082019050610f446000830184610f20565b92915050565b6000610f5582610eb0565b9050919050565b610f6581610f4a565b82525050565b6000602082019050610f806000830184610f5c565b92915050565b7f4e487b7100000000000000000000000000000000000000000000000000000000600052602160045260246000fd5b60048110610fc657610fc5610f86565b5b50565b6000819050610fd782610fb5565b919050565b6000610fe782610fc9565b9050919050565b610ff781610fdc565b82525050565b60006020820190506110126000830184610fee565b92915050565b600061102382610efc565b9050919050565b61103381611018565b82525050565b600060208201905061104e600083018461102a565b92915050565b600080fd5b6000601f19601f8301169050919050565b7f4e487b7100000000000000000000000000000000000000000000000000000000600052604160045260246000fd5b6110a282611059565b810181811067ffffffffffffffff821117156110c1576110c061106a565b5b80604052505050565b60006110d4610e0f565b90506110e08282611099565b919050565b600080fd5b600080fd5b600067ffffffffffffffff82111561110a5761110961106a565b5b602082029050602081019050919050565b600080fd5b600061112b82610f4a565b9050919050565b61113b81611120565b811461114657600080fd5b50565b60008135905061115881611132565b92915050565b60006040828403121561117457611173611054565b5b61117e60406110ca565b9050600061118e84828501611149565b60008301525060206111a284828501610e44565b60208301525092915050565b60006111c16111bc846110ef565b6110ca565b905080838252602082019050604084028301858111156111e4576111e361111b565b5b835b8181101561120d57806111f9888261115e565b8452602084019350506040810190506111e6565b5050509392505050565b600082601f83011261122c5761122b6110ea565b5b813561123c8482602086016111ae565b91505092915050565b6003811061125257600080fd5b50565b60008135905061126481611245565b92915050565b6000604082840312156112805761127f611054565b5b61128a60406110ca565b9050600082013567ffffffffffffffff8111156112aa576112a96110e5565b5b6112b684828501611217565b60008301525060206112ca84828501611255565b60208301525092915050565b6000602082840312156112ec576112eb610e19565b5b600082013567ffffffffffffffff81111561130a57611309610e1e565b5b6113168482850161126a565b91505092915050565b600082825260208201905092915050565b7f44756e67656f6e20616c726561647920636c61696d6564000000000000000000600082015250565b600061136660178361131f565b915061137182611330565b602082019050919050565b6000602082019050818103600083015261139581611359565b9050919050565b7f44756e67656f6e3a207061727479206d7573742068617665206174206c65617360008201527f74206f6e6520706c617965720000000000000000000000000000000000000000602082015250565b60006113f8602c8361131f565b91506114038261139c565b604082019050919050565b60006020820190508181036000830152611427816113eb565b9050919050565b7f4e487b7100000000000000000000000000000000000000000000000000000000600052603260045260246000fd5b61146681610f4a565b811461147157600080fd5b50565b6000815190506114838161145d565b92915050565b60006020828403121561149f5761149e610e19565b5b60006114ad84828501611474565b91505092915050565b7f44756e67656f6e3a20706c61796572206d75737420626520746865206f776e6560008201527f72206f662074686520746f6b656e000000000000000000000000000000000000602082015250565b6000611512602e8361131f565b915061151d826114b6565b604082019050919050565b6000602082019050818103600083015261154181611505565b9050919050565b7f4e487b7100000000000000000000000000000000000000000000000000000000600052601160045260246000fd5b600061158282610e23565b91507fffffffffffffffffffffffffffffffffffffffffffffffffffffffffffffffff82036115b4576115b3611548565b5b600182019050919050565b600060ff82169050919050565b6115d5816115bf565b81146115e057600080fd5b50565b6000815190506115f2816115cc565b92915050565b60006020828403121561160e5761160d610e19565b5b600061161c848285016115e3565b91505092915050565b600061163082610e23565b915061163b83610e23565b925082820190508082111561165357611652611548565b5b92915050565b60008151905061166881610e2d565b92915050565b60006020828403121561168457611683610e19565b5b600061169284828501611659565b91505092915050565b7f4e487b7100000000000000000000000000000000000000000000000000000000600052601260045260246000fd5b60006116d582610e23565b91506116e083610e23565b9250826116f0576116ef61169b565b5b828206905092915050565b6000819050919050565b600061172061171b611716846116fb565b610ed0565b610e23565b9050919050565b61173081611705565b82525050565b600060408201905061174b6000830185610f5c565b6117586020830184611727565b9392505050565b6000819050919050565b600061178461177f61177a8461175f565b610ed0565b610e23565b9050919050565b61179481611769565b82525050565b60006040820190506117af6000830185610f5c565b6117bc602083018461178b565b9392505050565b600081519050919050565b60005b838110156117ec5780820151818401526020810190506117d1565b60008484015250505050565b6000611803826117c3565b61180d818561131f565b935061181d8185602086016117ce565b61182681611059565b840191505092915050565b6000604082019050818103600083015261184b81856117f8565b905061185a6020830184610e86565b9392505050565b6000602082019050818103600083015261187b81846117f8565b905092915050565b6000604082019050818103600083015261189d81856117f8565b90506118ac6020830184610f5c565b939250505056fea2646970667358221220174f9d86baa555921f635f9cc99a1063c806dd5fa39183625ac8e47e1af7b7a464736f6c63430008130033",
  "linkReferences": {},
  "deployedLinkReferences": {}
}