{
  "_format": "hh-sol-artifact-1",
  "contractName": "Gear",
  "sourceName": "contracts/Gear.sol",
  "abi": [
    {
      "inputs": [
        {
          "internalType": "string",
          "name": "_name",
          "type": "string"
        },
        {
          "internalType": "string",
          "name": "_symbol",
          "type": "string"
        },
        {
          "internalType": "address",
          "name": "_registry",
          "type": "address"
        },
        {
          "internalType": "address",
          "name": "_vrf",
          "type": "address"
        }
      ],
      "stateMutability": "nonpayable",
      "type": "constructor"
    },
    {
      "anonymous": false,
      "inputs": [
        {
          "indexed": true,
          "internalType": "address",
          "name": "owner",
          "type": "address"
        },
        {
          "indexed": true,
          "internalType": "address",
          "name": "approved",
          "type": "address"
        },
        {
          "indexed": true,
          "internalType": "uint256",
          "name": "tokenId",
          "type": "uint256"
        }
      ],
      "name": "Approval",
      "type": "event"
    },
    {
      "anonymous": false,
      "inputs": [
        {
          "indexed": true,
          "internalType": "address",
          "name": "owner",
          "type": "address"
        },
        {
          "indexed": true,
          "internalType": "address",
          "name": "operator",
          "type": "address"
        },
        {
          "indexed": false,
          "internalType": "bool",
          "name": "approved",
          "type": "bool"
        }
      ],
      "name": "ApprovalForAll",
      "type": "event"
    },
    {
      "anonymous": false,
      "inputs": [
        {
          "indexed": false,
          "internalType": "uint256",
          "name": "id",
          "type": "uint256"
        },
        {
          "components": [
            {
              "internalType": "enum Gear.Stat",
              "name": "stat",
              "type": "uint8"
            },
            {
              "internalType": "uint8",
              "name": "mod",
              "type": "uint8"
            }
          ],
          "indexed": false,
          "internalType": "struct Gear.Modifier[]",
          "name": "modifiers",
          "type": "tuple[]"
        },
        {
          "indexed": false,
          "internalType": "enum Gear.Slot",
          "name": "slot",
          "type": "uint8"
        }
      ],
      "name": "GearCreated",
      "type": "event"
    },
    {
      "anonymous": false,
      "inputs": [
        {
          "indexed": false,
          "internalType": "uint256",
          "name": "tokenId",
          "type": "uint256"
        },
        {
          "indexed": false,
          "internalType": "uint256",
          "name": "gearId",
          "type": "uint256"
        }
      ],
      "name": "GearEquipped",
      "type": "event"
    },
    {
      "anonymous": false,
      "inputs": [
        {
          "indexed": false,
          "internalType": "uint256",
          "name": "tokenId",
          "type": "uint256"
        },
        {
          "indexed": false,
          "internalType": "uint256",
          "name": "gearId",
          "type": "uint256"
        }
      ],
      "name": "GearMinted",
      "type": "event"
    },
    {
      "anonymous": false,
      "inputs": [
        {
          "indexed": false,
          "internalType": "uint256",
          "name": "tokenId",
          "type": "uint256"
        },
        {
          "indexed": false,
          "internalType": "uint256",
          "name": "gearId",
          "type": "uint256"
        }
      ],
      "name": "GearUnequipped",
      "type": "event"
    },
    {
      "anonymous": false,
      "inputs": [
        {
          "indexed": false,
          "internalType": "uint256",
          "name": "id",
          "type": "uint256"
        },
        {
          "components": [
            {
              "internalType": "uint256",
              "name": "id",
              "type": "uint256"
            },
            {
              "internalType": "uint256",
              "name": "rangeStart",
              "type": "uint256"
            },
            {
              "internalType": "uint256",
              "name": "rangeEnd",
              "type": "uint256"
            }
          ],
          "indexed": false,
          "internalType": "struct Gear.LootBoxItem[]",
          "name": "items",
          "type": "tuple[]"
        },
        {
          "indexed": false,
          "internalType": "uint256",
          "name": "rangeMax",
          "type": "uint256"
        }
      ],
      "name": "LootBoxCreated",
      "type": "event"
    },
    {
      "anonymous": false,
      "inputs": [
        {
          "indexed": false,
          "internalType": "address",
          "name": "user",
          "type": "address"
        },
        {
          "indexed": false,
          "internalType": "uint256",
          "name": "lootBoxId",
          "type": "uint256"
        },
        {
          "indexed": false,
          "internalType": "uint256",
          "name": "gearId",
          "type": "uint256"
        }
      ],
      "name": "LootBoxOpened",
      "type": "event"
    },
    {
      "anonymous": false,
      "inputs": [
        {
          "indexed": true,
          "internalType": "address",
          "name": "from",
          "type": "address"
        },
        {
          "indexed": true,
          "internalType": "address",
          "name": "to",
          "type": "address"
        },
        {
          "indexed": true,
          "internalType": "uint256",
          "name": "tokenId",
          "type": "uint256"
        }
      ],
      "name": "Transfer",
      "type": "event"
    },
    {
      "inputs": [
        {
          "internalType": "uint256",
          "name": "gearDataId",
          "type": "uint256"
        }
      ],
      "name": "_mintGear",
      "outputs": [],
      "stateMutability": "nonpayable",
      "type": "function"
    },
    {
      "inputs": [
        {
          "internalType": "address",
          "name": "to",
          "type": "address"
        },
        {
          "internalType": "uint256",
          "name": "tokenId",
          "type": "uint256"
        }
      ],
      "name": "approve",
      "outputs": [],
      "stateMutability": "nonpayable",
      "type": "function"
    },
    {
      "inputs": [
        {
          "internalType": "address",
          "name": "owner",
          "type": "address"
        }
      ],
      "name": "balanceOf",
      "outputs": [
        {
          "internalType": "uint256",
          "name": "",
          "type": "uint256"
        }
      ],
      "stateMutability": "view",
      "type": "function"
    },
    {
      "inputs": [
        {
          "components": [
            {
              "internalType": "enum Gear.Stat",
              "name": "stat",
              "type": "uint8"
            },
            {
              "internalType": "uint8",
              "name": "mod",
              "type": "uint8"
            }
          ],
          "internalType": "struct Gear.Modifier[]",
          "name": "modifiers",
          "type": "tuple[]"
        },
        {
          "internalType": "enum Gear.Slot",
          "name": "slot",
          "type": "uint8"
        }
      ],
      "name": "createGearData",
      "outputs": [],
      "stateMutability": "nonpayable",
      "type": "function"
    },
    {
      "inputs": [
        {
          "components": [
            {
              "internalType": "uint256",
              "name": "id",
              "type": "uint256"
            },
            {
              "internalType": "uint256",
              "name": "rangeStart",
              "type": "uint256"
            },
            {
              "internalType": "uint256",
              "name": "rangeEnd",
              "type": "uint256"
            }
          ],
          "internalType": "struct Gear.LootBoxItem[]",
          "name": "items",
          "type": "tuple[]"
        },
        {
          "internalType": "uint256",
          "name": "rangeMax",
          "type": "uint256"
        }
      ],
      "name": "createLootBox",
      "outputs": [],
      "stateMutability": "nonpayable",
      "type": "function"
    },
    {
      "inputs": [],
      "name": "gearCount",
      "outputs": [
        {
          "internalType": "uint256",
          "name": "",
          "type": "uint256"
        }
      ],
      "stateMutability": "view",
      "type": "function"
    },
    {
      "inputs": [
        {
          "internalType": "uint256",
          "name": "id",
          "type": "uint256"
        }
      ],
      "name": "gearData",
      "outputs": [
        {
          "internalType": "uint256",
          "name": "modifierLength",
          "type": "uint256"
        },
        {
          "internalType": "enum Gear.Slot",
          "name": "slot",
          "type": "uint8"
        }
      ],
      "stateMutability": "view",
      "type": "function"
    },
    {
      "inputs": [
        {
          "internalType": "uint256",
          "name": "tokenId",
          "type": "uint256"
        }
      ],
      "name": "getApproved",
      "outputs": [
        {
          "internalType": "address",
          "name": "",
          "type": "address"
        }
      ],
      "stateMutability": "view",
      "type": "function"
    },
    {
      "inputs": [
        {
          "internalType": "uint256",
          "name": "tokenId",
          "type": "uint256"
        }
      ],
      "name": "getGearModifiers",
      "outputs": [
        {
          "components": [
            {
              "internalType": "enum Gear.Stat",
              "name": "stat",
              "type": "uint8"
            },
            {
              "internalType": "uint8",
              "name": "mod",
              "type": "uint8"
            }
          ],
          "internalType": "struct Gear.Modifier[]",
          "name": "",
          "type": "tuple[]"
        }
      ],
      "stateMutability": "view",
      "type": "function"
    },
    {
      "inputs": [
        {
          "internalType": "address",
          "name": "owner",
          "type": "address"
        },
        {
          "internalType": "address",
          "name": "operator",
          "type": "address"
        }
      ],
      "name": "isApprovedForAll",
      "outputs": [
        {
          "internalType": "bool",
          "name": "",
          "type": "bool"
        }
      ],
      "stateMutability": "view",
      "type": "function"
    },
    {
      "inputs": [],
      "name": "lootBoxCount",
      "outputs": [
        {
          "internalType": "uint256",
          "name": "",
          "type": "uint256"
        }
      ],
      "stateMutability": "view",
      "type": "function"
    },
    {
      "inputs": [
        {
          "internalType": "uint256",
          "name": "id",
          "type": "uint256"
        }
      ],
      "name": "lootBoxItems",
      "outputs": [
        {
          "components": [
            {
              "internalType": "uint256",
              "name": "id",
              "type": "uint256"
            },
            {
              "internalType": "uint256",
              "name": "rangeStart",
              "type": "uint256"
            },
            {
              "internalType": "uint256",
              "name": "rangeEnd",
              "type": "uint256"
            }
          ],
          "internalType": "struct Gear.LootBoxItem[]",
          "name": "",
          "type": "tuple[]"
        }
      ],
      "stateMutability": "view",
      "type": "function"
    },
    {
      "inputs": [
        {
          "internalType": "uint256",
          "name": "lootBoxId",
          "type": "uint256"
        }
      ],
      "name": "lootBoxes",
      "outputs": [
        {
          "internalType": "address",
          "name": "createdBy",
          "type": "address"
        },
        {
          "internalType": "uint256",
          "name": "rangeMax",
          "type": "uint256"
        },
        {
          "internalType": "uint256",
          "name": "itemLength",
          "type": "uint256"
        }
      ],
      "stateMutability": "view",
      "type": "function"
    },
    {
      "inputs": [],
      "name": "name",
      "outputs": [
        {
          "internalType": "string",
          "name": "",
          "type": "string"
        }
      ],
      "stateMutability": "view",
      "type": "function"
    },
    {
      "inputs": [
        {
          "internalType": "uint256",
          "name": "_lootBoxId",
          "type": "uint256"
        }
      ],
      "name": "openLootBox",
      "outputs": [],
      "stateMutability": "nonpayable",
      "type": "function"
    },
    {
      "inputs": [
        {
          "internalType": "uint256",
          "name": "tokenId",
          "type": "uint256"
        }
      ],
      "name": "ownerOf",
      "outputs": [
        {
          "internalType": "address",
          "name": "",
          "type": "address"
        }
      ],
      "stateMutability": "view",
      "type": "function"
    },
    {
      "inputs": [
        {
          "internalType": "uint256",
          "name": "id",
          "type": "uint256"
        }
      ],
      "name": "readGearData",
      "outputs": [
        {
          "components": [
            {
              "internalType": "enum Gear.Stat",
              "name": "stat",
              "type": "uint8"
            },
            {
              "internalType": "uint8",
              "name": "mod",
              "type": "uint8"
            }
          ],
          "internalType": "struct Gear.Modifier[]",
          "name": "",
          "type": "tuple[]"
        },
        {
          "internalType": "enum Gear.Slot",
          "name": "",
          "type": "uint8"
        }
      ],
      "stateMutability": "view",
      "type": "function"
    },
    {
      "inputs": [],
      "name": "registry",
      "outputs": [
        {
          "internalType": "contract Registry",
          "name": "",
          "type": "address"
        }
      ],
      "stateMutability": "view",
      "type": "function"
    },
    {
      "inputs": [
        {
          "internalType": "address",
          "name": "from",
          "type": "address"
        },
        {
          "internalType": "address",
          "name": "to",
          "type": "address"
        },
        {
          "internalType": "uint256",
          "name": "tokenId",
          "type": "uint256"
        }
      ],
      "name": "safeTransferFrom",
      "outputs": [],
      "stateMutability": "nonpayable",
      "type": "function"
    },
    {
      "inputs": [
        {
          "internalType": "address",
          "name": "from",
          "type": "address"
        },
        {
          "internalType": "address",
          "name": "to",
          "type": "address"
        },
        {
          "internalType": "uint256",
          "name": "tokenId",
          "type": "uint256"
        },
        {
          "internalType": "bytes",
          "name": "data",
          "type": "bytes"
        }
      ],
      "name": "safeTransferFrom",
      "outputs": [],
      "stateMutability": "nonpayable",
      "type": "function"
    },
    {
      "inputs": [
        {
          "internalType": "address",
          "name": "operator",
          "type": "address"
        },
        {
          "internalType": "bool",
          "name": "approved",
          "type": "bool"
        }
      ],
      "name": "setApprovalForAll",
      "outputs": [],
      "stateMutability": "nonpayable",
      "type": "function"
    },
    {
      "inputs": [
        {
          "internalType": "bytes4",
          "name": "interfaceId",
          "type": "bytes4"
        }
      ],
      "name": "supportsInterface",
      "outputs": [
        {
          "internalType": "bool",
          "name": "",
          "type": "bool"
        }
      ],
      "stateMutability": "view",
      "type": "function"
    },
    {
      "inputs": [],
      "name": "symbol",
      "outputs": [
        {
          "internalType": "string",
          "name": "",
          "type": "string"
        }
      ],
      "stateMutability": "view",
      "type": "function"
    },
    {
      "inputs": [
        {
          "internalType": "uint256",
          "name": "tokenId",
          "type": "uint256"
        }
      ],
      "name": "tokenToGear",
      "outputs": [
        {
          "internalType": "uint256",
          "name": "",
          "type": "uint256"
        }
      ],
      "stateMutability": "view",
      "type": "function"
    },
    {
      "inputs": [
        {
          "internalType": "uint256",
          "name": "tokenId",
          "type": "uint256"
        }
      ],
      "name": "tokenURI",
      "outputs": [
        {
          "internalType": "string",
          "name": "",
          "type": "string"
        }
      ],
      "stateMutability": "view",
      "type": "function"
    },
    {
      "inputs": [],
      "name": "totalSupply",
      "outputs": [
        {
          "internalType": "uint256",
          "name": "",
          "type": "uint256"
        }
      ],
      "stateMutability": "view",
      "type": "function"
    },
    {
      "inputs": [
        {
          "internalType": "address",
          "name": "from",
          "type": "address"
        },
        {
          "internalType": "address",
          "name": "to",
          "type": "address"
        },
        {
          "internalType": "uint256",
          "name": "tokenId",
          "type": "uint256"
        }
      ],
      "name": "transferFrom",
      "outputs": [],
      "stateMutability": "nonpayable",
      "type": "function"
    },
    {
      "inputs": [],
      "name": "vrf",
      "outputs": [
        {
          "internalType": "contract VRF",
          "name": "",
          "type": "address"
        }
      ],
      "stateMutability": "view",
      "type": "function"
    }
  ],
  "bytecode": "0x60806040523480156200001157600080fd5b5060405162004694380380620046948339818101604052810190620000379190620002e3565b838381600090816200004a9190620005de565b5080600190816200005c9190620005de565b50505081600d60006101000a81548173ffffffffffffffffffffffffffffffffffffffff021916908373ffffffffffffffffffffffffffffffffffffffff16021790555080600c60006101000a81548173ffffffffffffffffffffffffffffffffffffffff021916908373ffffffffffffffffffffffffffffffffffffffff16021790555050505050620006c5565b6000604051905090565b600080fd5b600080fd5b600080fd5b600080fd5b6000601f19601f8301169050919050565b7f4e487b7100000000000000000000000000000000000000000000000000000000600052604160045260246000fd5b620001548262000109565b810181811067ffffffffffffffff821117156200017657620001756200011a565b5b80604052505050565b60006200018b620000eb565b905062000199828262000149565b919050565b600067ffffffffffffffff821115620001bc57620001bb6200011a565b5b620001c78262000109565b9050602081019050919050565b60005b83811015620001f4578082015181840152602081019050620001d7565b60008484015250505050565b60006200021762000211846200019e565b6200017f565b90508281526020810184848401111562000236576200023562000104565b5b62000243848285620001d4565b509392505050565b600082601f830112620002635762000262620000ff565b5b81516200027584826020860162000200565b91505092915050565b600073ffffffffffffffffffffffffffffffffffffffff82169050919050565b6000620002ab826200027e565b9050919050565b620002bd816200029e565b8114620002c957600080fd5b50565b600081519050620002dd81620002b2565b92915050565b600080600080608085870312156200030057620002ff620000f5565b5b600085015167ffffffffffffffff811115620003215762000320620000fa565b5b6200032f878288016200024b565b945050602085015167ffffffffffffffff811115620003535762000352620000fa565b5b62000361878288016200024b565b93505060406200037487828801620002cc565b92505060606200038787828801620002cc565b91505092959194509250565b600081519050919050565b7f4e487b7100000000000000000000000000000000000000000000000000000000600052602260045260246000fd5b60006002820490506001821680620003e657607f821691505b602082108103620003fc57620003fb6200039e565b5b50919050565b60008190508160005260206000209050919050565b60006020601f8301049050919050565b600082821b905092915050565b600060088302620004667fffffffffffffffffffffffffffffffffffffffffffffffffffffffffffffffff8262000427565b62000472868362000427565b95508019841693508086168417925050509392505050565b6000819050919050565b6000819050919050565b6000620004bf620004b9620004b3846200048a565b62000494565b6200048a565b9050919050565b6000819050919050565b620004db836200049e565b620004f3620004ea82620004c6565b84845462000434565b825550505050565b600090565b6200050a620004fb565b62000517818484620004d0565b505050565b5b818110156200053f576200053360008262000500565b6001810190506200051d565b5050565b601f8211156200058e57620005588162000402565b620005638462000417565b8101602085101562000573578190505b6200058b620005828562000417565b8301826200051c565b50505b505050565b600082821c905092915050565b6000620005b36000198460080262000593565b1980831691505092915050565b6000620005ce8383620005a0565b9150826002028217905092915050565b620005e98262000393565b67ffffffffffffffff8111156200060557620006046200011a565b5b620006118254620003cd565b6200061e82828562000543565b600060209050601f83116001811462000656576000841562000641578287015190505b6200064d8582620005c0565b865550620006bd565b601f198416620006668662000402565b60005b82811015620006905784890151825560018201915060208501945060208101905062000669565b86831015620006b05784890151620006ac601f891682620005a0565b8355505b6001600288020188555050505b505050505050565b613fbf80620006d56000396000f3fe608060405234801561001057600080fd5b50600436106101c45760003560e01c80636352211e116100f9578063b88d4fde11610097578063cc3fc28311610071578063cc3fc2831461052d578063e985e9c51461054b578063ec399b971461057b578063f0a0514c146105ab576101c4565b8063b88d4fde146104af578063b95f71de146104cb578063c87b56dd146104fd576101c4565b806382ae6af1116100d357806382ae6af11461043d5780639379be8e1461045957806395d89b4114610475578063a22cb46514610493576101c4565b80636352211e146103bf57806370a08231146103ef5780637b1039991461041f576101c4565b80632c149979116101665780633c891e56116101405780633c891e561461033b57806342842e0e1461036b57806355a02c2d146103875780635a66f352146103a3576101c4565b80632c149979146102bb578063338ff14e146102ec578063349991e81461031d576101c4565b8063095ea7b3116101a2578063095ea7b3146102475780630c9490431461026357806318160ddd1461028157806323b872dd1461029f576101c4565b806301ffc9a7146101c957806306fdde03146101f9578063081812fc14610217575b600080fd5b6101e360048036038101906101de91906124f7565b6105db565b6040516101f0919061253f565b60405180910390f35b6102016106bd565b60405161020e91906125ea565b60405180910390f35b610231600480360381019061022c9190612642565b61074f565b60405161023e91906126b0565b60405180910390f35b610261600480360381019061025c91906126f7565b610795565b005b61026b6108ac565b6040516102789190612796565b60405180910390f35b6102896108d2565b60405161029691906127c0565b60405180910390f35b6102b960048036038101906102b491906127db565b6108d8565b005b6102d560048036038101906102d09190612642565b610938565b6040516102e39291906129e7565b60405180910390f35b61030660048036038101906103019190612642565b610972565b604051610314929190612a17565b60405180910390f35b6103256109a3565b60405161033291906127c0565b60405180910390f35b61035560048036038101906103509190612642565b6109a9565b60405161036291906127c0565b60405180910390f35b610385600480360381019061038091906127db565b6109c1565b005b6103a1600480360381019061039c9190612642565b6109e1565b005b6103bd60048036038101906103b89190612aa5565b610c47565b005b6103d960048036038101906103d49190612642565b610d78565b6040516103e691906126b0565b60405180910390f35b61040960048036038101906104049190612b05565b610dfe565b60405161041691906127c0565b60405180910390f35b610427610eb5565b6040516104349190612b53565b60405180910390f35b61045760048036038101906104529190612be9565b610edb565b005b610473600480360381019061046e9190612642565b610fec565b005b61047d61106a565b60405161048a91906125ea565b60405180910390f35b6104ad60048036038101906104a89190612c75565b6110fc565b005b6104c960048036038101906104c49190612de5565b611112565b005b6104e560048036038101906104e09190612642565b611174565b6040516104f493929190612e68565b60405180910390f35b61051760048036038101906105129190612642565b6111be565b60405161052491906125ea565b60405180910390f35b610535611226565b60405161054291906127c0565b60405180910390f35b61056560048036038101906105609190612e9f565b61122c565b604051610572919061253f565b60405180910390f35b61059560048036038101906105909190612642565b6112c0565b6040516105a29190612fdf565b60405180910390f35b6105c560048036038101906105c09190612642565b6113be565b6040516105d29190613001565b60405180910390f35b60007f80ac58cd000000000000000000000000000000000000000000000000000000007bffffffffffffffffffffffffffffffffffffffffffffffffffffffff1916827bffffffffffffffffffffffffffffffffffffffffffffffffffffffff191614806106a657507f5b5e139f000000000000000000000000000000000000000000000000000000007bffffffffffffffffffffffffffffffffffffffffffffffffffffffff1916827bffffffffffffffffffffffffffffffffffffffffffffffffffffffff1916145b806106b657506106b58261154d565b5b9050919050565b6060600080546106cc90613052565b80601f01602080910402602001604051908101604052809291908181526020018280546106f890613052565b80156107455780601f1061071a57610100808354040283529160200191610745565b820191906000526020600020905b81548152906001019060200180831161072857829003601f168201915b5050505050905090565b600061075a826115b7565b6004600083815260200190815260200160002060009054906101000a900473ffffffffffffffffffffffffffffffffffffffff169050919050565b60006107a082610d78565b90508073ffffffffffffffffffffffffffffffffffffffff168373ffffffffffffffffffffffffffffffffffffffff1603610810576040517f08c379a0000000000000000000000000000000000000000000000000000000008152600401610807906130f5565b60405180910390fd5b8073ffffffffffffffffffffffffffffffffffffffff1661082f611602565b73ffffffffffffffffffffffffffffffffffffffff16148061085e575061085d81610858611602565b61122c565b5b61089d576040517f08c379a000000000000000000000000000000000000000000000000000000000815260040161089490613187565b60405180910390fd5b6108a7838361160a565b505050565b600c60009054906101000a900473ffffffffffffffffffffffffffffffffffffffff1681565b600b5481565b6108e96108e3611602565b826116c3565b610928576040517f08c379a000000000000000000000000000000000000000000000000000000000815260040161091f90613219565b60405180910390fd5b610933838383611758565b505050565b60606000610945836113be565b6006600085815260200190815260200160002060020160009054906101000a900460ff1691509150915091565b60066020528060005260406000206000915090508060010154908060020160009054906101000a900460ff16905082565b60095481565b60086020528060005260406000206000915090505481565b6109dc83838360405180602001604052806000815250611112565b505050565b600d60009054906101000a900473ffffffffffffffffffffffffffffffffffffffff1673ffffffffffffffffffffffffffffffffffffffff1663b95f71de826040518263ffffffff1660e01b8152600401610a3c91906127c0565b602060405180830381865afa158015610a59573d6000803e3d6000fd5b505050506040513d601f19601f82011682018060405250810190610a7d919061324e565b610abc576040517f08c379a0000000000000000000000000000000000000000000000000000000008152600401610ab3906132ed565b60405180910390fd5b60006007600083815260200190815260200160002060010154600c60009054906101000a900473ffffffffffffffffffffffffffffffffffffffff1673ffffffffffffffffffffffffffffffffffffffff1663dbdff2c16040518163ffffffff1660e01b8152600401602060405180830381865afa158015610b42573d6000803e3d6000fd5b505050506040513d601f19601f82011682018060405250810190610b669190613322565b610b70919061337e565b905060006007600084815260200190815260200160002060030154905060005b81811015610c41576000600760008681526020019081526020016000206002016000838152602001908152602001600020905080600101548410158015610bdb575080600201548411155b15610c2d57610bed8160000154610fec565b7ffae87b2acfbc83e493c8f553212d10ea70b7b18404ea413993407942efcdc90733868360000154604051610c2493929190612e68565b60405180910390a15b508080610c39906133de565b915050610b90565b50505050565b600a6000815480929190610c5a906133de565b91905055506000600a5490506000600760008381526020019081526020016000209050338160000160006101000a81548173ffffffffffffffffffffffffffffffffffffffff021916908373ffffffffffffffffffffffffffffffffffffffff16021790555084849050816003018190555060005b85859050811015610d2a57858582818110610ced57610cec613426565b5b9050606002018260020160008381526020019081526020016000208181610d149190613570565b9050508080610d22906133de565b915050610ccf565b508281600101819055507f36762aa66a2afb9783feeb2e4fd73e077ca62eec5a2f193d9923bbe84f87472882868686604051610d699493929190613686565b60405180910390a15050505050565b600080610d8483611a51565b9050600073ffffffffffffffffffffffffffffffffffffffff168173ffffffffffffffffffffffffffffffffffffffff1603610df5576040517f08c379a0000000000000000000000000000000000000000000000000000000008152600401610dec90613712565b60405180910390fd5b80915050919050565b60008073ffffffffffffffffffffffffffffffffffffffff168273ffffffffffffffffffffffffffffffffffffffff1603610e6e576040517f08c379a0000000000000000000000000000000000000000000000000000000008152600401610e65906137a4565b60405180910390fd5b600360008373ffffffffffffffffffffffffffffffffffffffff1673ffffffffffffffffffffffffffffffffffffffff168152602001908152602001600020549050919050565b600d60009054906101000a900473ffffffffffffffffffffffffffffffffffffffff1681565b60096000815480929190610eee906133de565b9190505550600060095490506000600660008381526020019081526020016000209050848490508160010181905550828160020160006101000a81548160ff02191690836005811115610f4457610f4361285a565b5b021790555060005b85859050811015610fa757858582818110610f6a57610f69613426565b5b9050604002018260000160008381526020019081526020016000208181610f91919061393f565b9050508080610f9f906133de565b915050610f4c565b507fba2a962bffbfc334905686133f74e7fa2e88bfd7f4d123652f62310e87835e4382868686604051610fdd9493929190613a7b565b60405180910390a15050505050565b6000600b549050610ffd3382611a8e565b816008600083815260200190815260200160002081905550600b6000815480929190611028906133de565b91905055507f01f718bda4014bc596c3065170f3872f0ee8a503e3d4dfbe3b63d7b5c3dd8b59818360405161105e929190613abb565b60405180910390a15050565b60606001805461107990613052565b80601f01602080910402602001604051908101604052809291908181526020018280546110a590613052565b80156110f25780601f106110c7576101008083540402835291602001916110f2565b820191906000526020600020905b8154815290600101906020018083116110d557829003601f168201915b5050505050905090565b61110e611107611602565b8383611aac565b5050565b61112361111d611602565b836116c3565b611162576040517f08c379a000000000000000000000000000000000000000000000000000000000815260040161115990613219565b60405180910390fd5b61116e84848484611c18565b50505050565b60076020528060005260406000206000915090508060000160009054906101000a900473ffffffffffffffffffffffffffffffffffffffff16908060010154908060030154905083565b60606111c9826115b7565b60006111d3611c74565b905060008151116111f3576040518060200160405280600081525061121e565b806111fd84611c8b565b60405160200161120e929190613b20565b6040516020818303038152906040525b915050919050565b600a5481565b6000600560008473ffffffffffffffffffffffffffffffffffffffff1673ffffffffffffffffffffffffffffffffffffffff16815260200190815260200160002060008373ffffffffffffffffffffffffffffffffffffffff1673ffffffffffffffffffffffffffffffffffffffff16815260200190815260200160002060009054906101000a900460ff16905092915050565b606060006007600084815260200190815260200160002090506000816003015467ffffffffffffffff8111156112f9576112f8612cba565b5b60405190808252806020026020018201604052801561133257816020015b61131f61243b565b8152602001906001900390816113175790505b50905060005b82600301548110156113b357826002016000828152602001908152602001600020604051806060016040529081600082015481526020016001820154815260200160028201548152505082828151811061139557611394613426565b5b602002602001018190525080806113ab906133de565b915050611338565b508092505050919050565b6060600060066000600860008681526020019081526020016000205481526020019081526020016000206001015467ffffffffffffffff81111561140557611404612cba565b5b60405190808252806020026020018201604052801561143e57816020015b61142b61245c565b8152602001906001900390816114235790505b50905060005b60066000600860008781526020019081526020016000205481526020019081526020016000206001015481101561154357600660006008600087815260200190815260200160002054815260200190815260200160002060000160008281526020019081526020016000206040518060400160405290816000820160009054906101000a900460ff1660078111156114df576114de61285a565b5b60078111156114f1576114f061285a565b5b81526020016000820160019054906101000a900460ff1660ff1660ff168152505082828151811061152557611524613426565b5b6020026020010181905250808061153b906133de565b915050611444565b5080915050919050565b60007f01ffc9a7000000000000000000000000000000000000000000000000000000007bffffffffffffffffffffffffffffffffffffffffffffffffffffffff1916827bffffffffffffffffffffffffffffffffffffffffffffffffffffffff1916149050919050565b6115c081611d59565b6115ff576040517f08c379a00000000000000000000000000000000000000000000000000000000081526004016115f690613712565b60405180910390fd5b50565b600033905090565b816004600083815260200190815260200160002060006101000a81548173ffffffffffffffffffffffffffffffffffffffff021916908373ffffffffffffffffffffffffffffffffffffffff160217905550808273ffffffffffffffffffffffffffffffffffffffff1661167d83610d78565b73ffffffffffffffffffffffffffffffffffffffff167f8c5be1e5ebec7d5bd14f71427d1e84f3dd0314c0f7b2291e5b200ac8c7c3b92560405160405180910390a45050565b6000806116cf83610d78565b90508073ffffffffffffffffffffffffffffffffffffffff168473ffffffffffffffffffffffffffffffffffffffff1614806117115750611710818561122c565b5b8061174f57508373ffffffffffffffffffffffffffffffffffffffff166117378461074f565b73ffffffffffffffffffffffffffffffffffffffff16145b91505092915050565b8273ffffffffffffffffffffffffffffffffffffffff1661177882610d78565b73ffffffffffffffffffffffffffffffffffffffff16146117ce576040517f08c379a00000000000000000000000000000000000000000000000000000000081526004016117c590613bb6565b60405180910390fd5b600073ffffffffffffffffffffffffffffffffffffffff168273ffffffffffffffffffffffffffffffffffffffff160361183d576040517f08c379a000000000000000000000000000000000000000000000000000000000815260040161183490613c48565b60405180910390fd5b61184a8383836001611d9a565b8273ffffffffffffffffffffffffffffffffffffffff1661186a82610d78565b73ffffffffffffffffffffffffffffffffffffffff16146118c0576040517f08c379a00000000000000000000000000000000000000000000000000000000081526004016118b790613bb6565b60405180910390fd5b6004600082815260200190815260200160002060006101000a81549073ffffffffffffffffffffffffffffffffffffffff02191690556001600360008573ffffffffffffffffffffffffffffffffffffffff1673ffffffffffffffffffffffffffffffffffffffff168152602001908152602001600020600082825403925050819055506001600360008473ffffffffffffffffffffffffffffffffffffffff1673ffffffffffffffffffffffffffffffffffffffff16815260200190815260200160002060008282540192505081905550816002600083815260200190815260200160002060006101000a81548173ffffffffffffffffffffffffffffffffffffffff021916908373ffffffffffffffffffffffffffffffffffffffff160217905550808273ffffffffffffffffffffffffffffffffffffffff168473ffffffffffffffffffffffffffffffffffffffff167fddf252ad1be2c89b69c2b068fc378daa952ba7f163c4a11628f55a4df523b3ef60405160405180910390a4611a4c8383836001611ec0565b505050565b60006002600083815260200190815260200160002060009054906101000a900473ffffffffffffffffffffffffffffffffffffffff169050919050565b611aa8828260405180602001604052806000815250611ec6565b5050565b8173ffffffffffffffffffffffffffffffffffffffff168373ffffffffffffffffffffffffffffffffffffffff1603611b1a576040517f08c379a0000000000000000000000000000000000000000000000000000000008152600401611b1190613cb4565b60405180910390fd5b80600560008573ffffffffffffffffffffffffffffffffffffffff1673ffffffffffffffffffffffffffffffffffffffff16815260200190815260200160002060008473ffffffffffffffffffffffffffffffffffffffff1673ffffffffffffffffffffffffffffffffffffffff16815260200190815260200160002060006101000a81548160ff0219169083151502179055508173ffffffffffffffffffffffffffffffffffffffff168373ffffffffffffffffffffffffffffffffffffffff167f17307eab39ab6107e8899845ad3d59bd9653f200f220920489ca2b5937696c3183604051611c0b919061253f565b60405180910390a3505050565b611c23848484611758565b611c2f84848484611f21565b611c6e576040517f08c379a0000000000000000000000000000000000000000000000000000000008152600401611c6590613d46565b60405180910390fd5b50505050565b606060405180602001604052806000815250905090565b606060006001611c9a846120a8565b01905060008167ffffffffffffffff811115611cb957611cb8612cba565b5b6040519080825280601f01601f191660200182016040528015611ceb5781602001600182028036833780820191505090505b509050600082602001820190505b600115611d4e578080600190039150507f3031323334353637383961626364656600000000000000000000000000000000600a86061a8153600a8581611d4257611d4161334f565b5b04945060008503611cf9575b819350505050919050565b60008073ffffffffffffffffffffffffffffffffffffffff16611d7b83611a51565b73ffffffffffffffffffffffffffffffffffffffff1614159050919050565b6001811115611eba57600073ffffffffffffffffffffffffffffffffffffffff168473ffffffffffffffffffffffffffffffffffffffff1614611e2e5780600360008673ffffffffffffffffffffffffffffffffffffffff1673ffffffffffffffffffffffffffffffffffffffff1681526020019081526020016000206000828254611e269190613d66565b925050819055505b600073ffffffffffffffffffffffffffffffffffffffff168373ffffffffffffffffffffffffffffffffffffffff1614611eb95780600360008573ffffffffffffffffffffffffffffffffffffffff1673ffffffffffffffffffffffffffffffffffffffff1681526020019081526020016000206000828254611eb19190613d9a565b925050819055505b5b50505050565b50505050565b611ed083836121fb565b611edd6000848484611f21565b611f1c576040517f08c379a0000000000000000000000000000000000000000000000000000000008152600401611f1390613d46565b60405180910390fd5b505050565b6000611f428473ffffffffffffffffffffffffffffffffffffffff16612418565b1561209b578373ffffffffffffffffffffffffffffffffffffffff1663150b7a02611f6b611602565b8786866040518563ffffffff1660e01b8152600401611f8d9493929190613e23565b6020604051808303816000875af1925050508015611fc957506040513d601f19601f82011682018060405250810190611fc69190613e84565b60015b61204b573d8060008114611ff9576040519150601f19603f3d011682016040523d82523d6000602084013e611ffe565b606091505b506000815103612043576040517f08c379a000000000000000000000000000000000000000000000000000000000815260040161203a90613d46565b60405180910390fd5b805181602001fd5b63150b7a0260e01b7bffffffffffffffffffffffffffffffffffffffffffffffffffffffff1916817bffffffffffffffffffffffffffffffffffffffffffffffffffffffff1916149150506120a0565b600190505b949350505050565b600080600090507a184f03e93ff9f4daa797ed6e38ed64bf6a1f0100000000000000008310612106577a184f03e93ff9f4daa797ed6e38ed64bf6a1f01000000000000000083816120fc576120fb61334f565b5b0492506040810190505b6d04ee2d6d415b85acef81000000008310612143576d04ee2d6d415b85acef810000000083816121395761213861334f565b5b0492506020810190505b662386f26fc10000831061217257662386f26fc1000083816121685761216761334f565b5b0492506010810190505b6305f5e100831061219b576305f5e10083816121915761219061334f565b5b0492506008810190505b61271083106121c05761271083816121b6576121b561334f565b5b0492506004810190505b606483106121e357606483816121d9576121d861334f565b5b0492506002810190505b600a83106121f2576001810190505b80915050919050565b600073ffffffffffffffffffffffffffffffffffffffff168273ffffffffffffffffffffffffffffffffffffffff160361226a576040517f08c379a000000000000000000000000000000000000000000000000000000000815260040161226190613efd565b60405180910390fd5b61227381611d59565b156122b3576040517f08c379a00000000000000000000000000000000000000000000000000000000081526004016122aa90613f69565b60405180910390fd5b6122c1600083836001611d9a565b6122ca81611d59565b1561230a576040517f08c379a000000000000000000000000000000000000000000000000000000000815260040161230190613f69565b60405180910390fd5b6001600360008473ffffffffffffffffffffffffffffffffffffffff1673ffffffffffffffffffffffffffffffffffffffff16815260200190815260200160002060008282540192505081905550816002600083815260200190815260200160002060006101000a81548173ffffffffffffffffffffffffffffffffffffffff021916908373ffffffffffffffffffffffffffffffffffffffff160217905550808273ffffffffffffffffffffffffffffffffffffffff16600073ffffffffffffffffffffffffffffffffffffffff167fddf252ad1be2c89b69c2b068fc378daa952ba7f163c4a11628f55a4df523b3ef60405160405180910390a4612414600083836001611ec0565b5050565b6000808273ffffffffffffffffffffffffffffffffffffffff163b119050919050565b60405180606001604052806000815260200160008152602001600081525090565b60405180604001604052806000600781111561247b5761247a61285a565b5b8152602001600060ff1681525090565b6000604051905090565b600080fd5b600080fd5b60007fffffffff0000000000000000000000000000000000000000000000000000000082169050919050565b6124d48161249f565b81146124df57600080fd5b50565b6000813590506124f1816124cb565b92915050565b60006020828403121561250d5761250c612495565b5b600061251b848285016124e2565b91505092915050565b60008115159050919050565b61253981612524565b82525050565b60006020820190506125546000830184612530565b92915050565b600081519050919050565b600082825260208201905092915050565b60005b83811015612594578082015181840152602081019050612579565b60008484015250505050565b6000601f19601f8301169050919050565b60006125bc8261255a565b6125c68185612565565b93506125d6818560208601612576565b6125df816125a0565b840191505092915050565b6000602082019050818103600083015261260481846125b1565b905092915050565b6000819050919050565b61261f8161260c565b811461262a57600080fd5b50565b60008135905061263c81612616565b92915050565b60006020828403121561265857612657612495565b5b60006126668482850161262d565b91505092915050565b600073ffffffffffffffffffffffffffffffffffffffff82169050919050565b600061269a8261266f565b9050919050565b6126aa8161268f565b82525050565b60006020820190506126c560008301846126a1565b92915050565b6126d48161268f565b81146126df57600080fd5b50565b6000813590506126f1816126cb565b92915050565b6000806040838503121561270e5761270d612495565b5b600061271c858286016126e2565b925050602061272d8582860161262d565b9150509250929050565b6000819050919050565b600061275c6127576127528461266f565b612737565b61266f565b9050919050565b600061276e82612741565b9050919050565b600061278082612763565b9050919050565b61279081612775565b82525050565b60006020820190506127ab6000830184612787565b92915050565b6127ba8161260c565b82525050565b60006020820190506127d560008301846127b1565b92915050565b6000806000606084860312156127f4576127f3612495565b5b6000612802868287016126e2565b9350506020612813868287016126e2565b92505060406128248682870161262d565b9150509250925092565b600081519050919050565b600082825260208201905092915050565b6000819050602082019050919050565b7f4e487b7100000000000000000000000000000000000000000000000000000000600052602160045260246000fd5b6008811061289a5761289961285a565b5b50565b60008190506128ab82612889565b919050565b60006128bb8261289d565b9050919050565b6128cb816128b0565b82525050565b600060ff82169050919050565b6128e7816128d1565b82525050565b60408201600082015161290360008501826128c2565b50602082015161291660208501826128de565b50505050565b600061292883836128ed565b60408301905092915050565b6000602082019050919050565b600061294c8261282e565b6129568185612839565b93506129618361284a565b8060005b83811015612992578151612979888261291c565b975061298483612934565b925050600181019050612965565b5085935050505092915050565b600681106129b0576129af61285a565b5b50565b60008190506129c18261299f565b919050565b60006129d1826129b3565b9050919050565b6129e1816129c6565b82525050565b60006040820190508181036000830152612a018185612941565b9050612a1060208301846129d8565b9392505050565b6000604082019050612a2c60008301856127b1565b612a3960208301846129d8565b9392505050565b600080fd5b600080fd5b600080fd5b60008083601f840112612a6557612a64612a40565b5b8235905067ffffffffffffffff811115612a8257612a81612a45565b5b602083019150836060820283011115612a9e57612a9d612a4a565b5b9250929050565b600080600060408486031215612abe57612abd612495565b5b600084013567ffffffffffffffff811115612adc57612adb61249a565b5b612ae886828701612a4f565b93509350506020612afb8682870161262d565b9150509250925092565b600060208284031215612b1b57612b1a612495565b5b6000612b29848285016126e2565b91505092915050565b6000612b3d82612763565b9050919050565b612b4d81612b32565b82525050565b6000602082019050612b686000830184612b44565b92915050565b60008083601f840112612b8457612b83612a40565b5b8235905067ffffffffffffffff811115612ba157612ba0612a45565b5b602083019150836040820283011115612bbd57612bbc612a4a565b5b9250929050565b60068110612bd157600080fd5b50565b600081359050612be381612bc4565b92915050565b600080600060408486031215612c0257612c01612495565b5b600084013567ffffffffffffffff811115612c2057612c1f61249a565b5b612c2c86828701612b6e565b93509350506020612c3f86828701612bd4565b9150509250925092565b612c5281612524565b8114612c5d57600080fd5b50565b600081359050612c6f81612c49565b92915050565b60008060408385031215612c8c57612c8b612495565b5b6000612c9a858286016126e2565b9250506020612cab85828601612c60565b9150509250929050565b600080fd5b7f4e487b7100000000000000000000000000000000000000000000000000000000600052604160045260246000fd5b612cf2826125a0565b810181811067ffffffffffffffff82111715612d1157612d10612cba565b5b80604052505050565b6000612d2461248b565b9050612d308282612ce9565b919050565b600067ffffffffffffffff821115612d5057612d4f612cba565b5b612d59826125a0565b9050602081019050919050565b82818337600083830152505050565b6000612d88612d8384612d35565b612d1a565b905082815260208101848484011115612da457612da3612cb5565b5b612daf848285612d66565b509392505050565b600082601f830112612dcc57612dcb612a40565b5b8135612ddc848260208601612d75565b91505092915050565b60008060008060808587031215612dff57612dfe612495565b5b6000612e0d878288016126e2565b9450506020612e1e878288016126e2565b9350506040612e2f8782880161262d565b925050606085013567ffffffffffffffff811115612e5057612e4f61249a565b5b612e5c87828801612db7565b91505092959194509250565b6000606082019050612e7d60008301866126a1565b612e8a60208301856127b1565b612e9760408301846127b1565b949350505050565b60008060408385031215612eb657612eb5612495565b5b6000612ec4858286016126e2565b9250506020612ed5858286016126e2565b9150509250929050565b600081519050919050565b600082825260208201905092915050565b6000819050602082019050919050565b612f148161260c565b82525050565b606082016000820151612f306000850182612f0b565b506020820151612f436020850182612f0b565b506040820151612f566040850182612f0b565b50505050565b6000612f688383612f1a565b60608301905092915050565b6000602082019050919050565b6000612f8c82612edf565b612f968185612eea565b9350612fa183612efb565b8060005b83811015612fd2578151612fb98882612f5c565b9750612fc483612f74565b925050600181019050612fa5565b5085935050505092915050565b60006020820190508181036000830152612ff98184612f81565b905092915050565b6000602082019050818103600083015261301b8184612941565b905092915050565b7f4e487b7100000000000000000000000000000000000000000000000000000000600052602260045260246000fd5b6000600282049050600182168061306a57607f821691505b60208210810361307d5761307c613023565b5b50919050565b7f4552433732313a20617070726f76616c20746f2063757272656e74206f776e6560008201527f7200000000000000000000000000000000000000000000000000000000000000602082015250565b60006130df602183612565565b91506130ea82613083565b604082019050919050565b6000602082019050818103600083015261310e816130d2565b9050919050565b7f4552433732313a20617070726f76652063616c6c6572206973206e6f7420746f60008201527f6b656e206f776e6572206f7220617070726f76656420666f7220616c6c000000602082015250565b6000613171603d83612565565b915061317c82613115565b604082019050919050565b600060208201905081810360008301526131a081613164565b9050919050565b7f4552433732313a2063616c6c6572206973206e6f7420746f6b656e206f776e6560008201527f72206f7220617070726f76656400000000000000000000000000000000000000602082015250565b6000613203602d83612565565b915061320e826131a7565b604082019050919050565b60006020820190508181036000830152613232816131f6565b9050919050565b60008151905061324881612c49565b92915050565b60006020828403121561326457613263612495565b5b600061327284828501613239565b91505092915050565b7f4c6f6f74426f78206861736e2774206265656e206d616465206f66666963696160008201527f6c20796574000000000000000000000000000000000000000000000000000000602082015250565b60006132d7602583612565565b91506132e28261327b565b604082019050919050565b60006020820190508181036000830152613306816132ca565b9050919050565b60008151905061331c81612616565b92915050565b60006020828403121561333857613337612495565b5b60006133468482850161330d565b91505092915050565b7f4e487b7100000000000000000000000000000000000000000000000000000000600052601260045260246000fd5b60006133898261260c565b91506133948361260c565b9250826133a4576133a361334f565b5b828206905092915050565b7f4e487b7100000000000000000000000000000000000000000000000000000000600052601160045260246000fd5b60006133e98261260c565b91507fffffffffffffffffffffffffffffffffffffffffffffffffffffffffffffffff820361341b5761341a6133af565b5b600182019050919050565b7f4e487b7100000000000000000000000000000000000000000000000000000000600052603260045260246000fd5b6000813561346281612616565b80915050919050565b60008160001b9050919050565b60007fffffffffffffffffffffffffffffffffffffffffffffffffffffffffffffffff6134a48461346b565b9350801983169250808416831791505092915050565b60006134d56134d06134cb8461260c565b612737565b61260c565b9050919050565b6000819050919050565b6134ef826134ba565b6135026134fb826134dc565b8354613478565b8255505050565b60008101600083018061351b81613455565b905061352781846134e6565b50505060018101602083018061353c81613455565b905061354881846134e6565b50505060028101604083018061355d81613455565b905061356981846134e6565b5050505050565b61357a8282613509565b5050565b6000819050919050565b6000613597602084018461262d565b905092915050565b606082016135b06000830183613588565b6135bd6000850182612f0b565b506135cb6020830183613588565b6135d86020850182612f0b565b506135e66040830183613588565b6135f36040850182612f0b565b50505050565b6000613605838361359f565b60608301905092915050565b600082905092915050565b6000606082019050919050565b60006136358385612eea565b93506136408261357e565b8060005b85811015613679576136568284613611565b61366088826135f9565b975061366b8361361c565b925050600181019050613644565b5085925050509392505050565b600060608201905061369b60008301876127b1565b81810360208301526136ae818587613629565b90506136bd60408301846127b1565b95945050505050565b7f4552433732313a20696e76616c696420746f6b656e2049440000000000000000600082015250565b60006136fc601883612565565b9150613707826136c6565b602082019050919050565b6000602082019050818103600083015261372b816136ef565b9050919050565b7f4552433732313a2061646472657373207a65726f206973206e6f74206120766160008201527f6c6964206f776e65720000000000000000000000000000000000000000000000602082015250565b600061378e602983612565565b915061379982613732565b604082019050919050565b600060208201905081810360008301526137bd81613781565b9050919050565b600881106137d157600080fd5b50565b600081356137e1816137c4565b80915050919050565b600060ff6137f78461346b565b9350801983169250808416831791505092915050565b60006138188261289d565b9050919050565b6000819050919050565b6138328261380d565b61384561383e8261381f565b83546137ea565b8255505050565b613855816128d1565b811461386057600080fd5b50565b600081356138708161384c565b80915050919050565b60008160081b9050919050565b600061ff0061389484613879565b9350801983169250808416831791505092915050565b60006138c56138c06138bb846128d1565b612737565b6128d1565b9050919050565b6000819050919050565b6138df826138aa565b6138f26138eb826138cc565b8354613886565b8255505050565b60008101600083018061390b816137d4565b90506139178184613829565b50505060008101602083018061392c81613863565b905061393881846138d6565b5050505050565b61394982826138f9565b5050565b6000819050919050565b600081359050613966816137c4565b92915050565b600061397b6020840184613957565b905092915050565b6000813590506139928161384c565b92915050565b60006139a76020840184613983565b905092915050565b604082016139c0600083018361396c565b6139cd60008501826128c2565b506139db6020830183613998565b6139e860208501826128de565b50505050565b60006139fa83836139af565b60408301905092915050565b600082905092915050565b6000604082019050919050565b6000613a2a8385612839565b9350613a358261394d565b8060005b85811015613a6e57613a4b8284613a06565b613a5588826139ee565b9750613a6083613a11565b925050600181019050613a39565b5085925050509392505050565b6000606082019050613a9060008301876127b1565b8181036020830152613aa3818587613a1e565b9050613ab260408301846129d8565b95945050505050565b6000604082019050613ad060008301856127b1565b613add60208301846127b1565b9392505050565b600081905092915050565b6000613afa8261255a565b613b048185613ae4565b9350613b14818560208601612576565b80840191505092915050565b6000613b2c8285613aef565b9150613b388284613aef565b91508190509392505050565b7f4552433732313a207472616e736665722066726f6d20696e636f72726563742060008201527f6f776e6572000000000000000000000000000000000000000000000000000000602082015250565b6000613ba0602583612565565b9150613bab82613b44565b604082019050919050565b60006020820190508181036000830152613bcf81613b93565b9050919050565b7f4552433732313a207472616e7366657220746f20746865207a65726f2061646460008201527f7265737300000000000000000000000000000000000000000000000000000000602082015250565b6000613c32602483612565565b9150613c3d82613bd6565b604082019050919050565b60006020820190508181036000830152613c6181613c25565b9050919050565b7f4552433732313a20617070726f766520746f2063616c6c657200000000000000600082015250565b6000613c9e601983612565565b9150613ca982613c68565b602082019050919050565b60006020820190508181036000830152613ccd81613c91565b9050919050565b7f4552433732313a207472616e7366657220746f206e6f6e20455243373231526560008201527f63656976657220696d706c656d656e7465720000000000000000000000000000602082015250565b6000613d30603283612565565b9150613d3b82613cd4565b604082019050919050565b60006020820190508181036000830152613d5f81613d23565b9050919050565b6000613d718261260c565b9150613d7c8361260c565b9250828203905081811115613d9457613d936133af565b5b92915050565b6000613da58261260c565b9150613db08361260c565b9250828201905080821115613dc857613dc76133af565b5b92915050565b600081519050919050565b600082825260208201905092915050565b6000613df582613dce565b613dff8185613dd9565b9350613e0f818560208601612576565b613e18816125a0565b840191505092915050565b6000608082019050613e3860008301876126a1565b613e4560208301866126a1565b613e5260408301856127b1565b8181036060830152613e648184613dea565b905095945050505050565b600081519050613e7e816124cb565b92915050565b600060208284031215613e9a57613e99612495565b5b6000613ea884828501613e6f565b91505092915050565b7f4552433732313a206d696e7420746f20746865207a65726f2061646472657373600082015250565b6000613ee7602083612565565b9150613ef282613eb1565b602082019050919050565b60006020820190508181036000830152613f1681613eda565b9050919050565b7f4552433732313a20746f6b656e20616c7265616479206d696e74656400000000600082015250565b6000613f53601c83612565565b9150613f5e82613f1d565b602082019050919050565b60006020820190508181036000830152613f8281613f46565b905091905056fea2646970667358221220ebbf828abd15c5cb59803a199b34e9918d058c0909276520085cdb824dce5bed64736f6c63430008130033",
  "linkReferences": {},
  "deployedLinkReferences": {}
}