{
  "_format": "hh-sol-artifact-1",
  "contractName": "PlayerSheet",
  "sourceName": "contracts/PlayerSheet.sol",
  "abi": [
    {
      "inputs": [
        {
          "internalType": "string",
          "name": "_name",
          "type": "string"
        },
        {
          "internalType": "string",
          "name": "_symbol",
          "type": "string"
        },
        {
          "internalType": "address",
          "name": "_registry",
          "type": "address"
        },
        {
          "internalType": "address",
          "name": "_vrf",
          "type": "address"
        }
      ],
      "stateMutability": "nonpayable",
      "type": "constructor"
    },
    {
      "anonymous": false,
      "inputs": [
        {
          "indexed": true,
          "internalType": "address",
          "name": "owner",
          "type": "address"
        },
        {
          "indexed": true,
          "internalType": "address",
          "name": "approved",
          "type": "address"
        },
        {
          "indexed": true,
          "internalType": "uint256",
          "name": "tokenId",
          "type": "uint256"
        }
      ],
      "name": "Approval",
      "type": "event"
    },
    {
      "anonymous": false,
      "inputs": [
        {
          "indexed": true,
          "internalType": "address",
          "name": "owner",
          "type": "address"
        },
        {
          "indexed": true,
          "internalType": "address",
          "name": "operator",
          "type": "address"
        },
        {
          "indexed": false,
          "internalType": "bool",
          "name": "approved",
          "type": "bool"
        }
      ],
      "name": "ApprovalForAll",
      "type": "event"
    },
    {
      "anonymous": false,
      "inputs": [
        {
          "indexed": false,
          "internalType": "string",
          "name": "className",
          "type": "string"
        },
        {
          "indexed": false,
          "internalType": "address",
          "name": "classAddress",
          "type": "address"
        }
      ],
      "name": "ClassCreated",
      "type": "event"
    },
    {
      "anonymous": false,
      "inputs": [
        {
          "indexed": false,
          "internalType": "uint256",
          "name": "tokenId",
          "type": "uint256"
        },
        {
          "indexed": false,
          "internalType": "address",
          "name": "gearContract",
          "type": "address"
        },
        {
          "indexed": false,
          "internalType": "uint256",
          "name": "gearTokenId",
          "type": "uint256"
        }
      ],
      "name": "GearEquipped",
      "type": "event"
    },
    {
      "anonymous": false,
      "inputs": [
        {
          "indexed": false,
          "internalType": "uint256",
          "name": "tokenId",
          "type": "uint256"
        },
        {
          "components": [
            {
              "internalType": "uint8",
              "name": "constitution",
              "type": "uint8"
            },
            {
              "internalType": "uint8",
              "name": "dexterity",
              "type": "uint8"
            },
            {
              "internalType": "uint8",
              "name": "strength",
              "type": "uint8"
            },
            {
              "internalType": "uint8",
              "name": "wisdom",
              "type": "uint8"
            },
            {
              "internalType": "uint8",
              "name": "inteligence",
              "type": "uint8"
            },
            {
              "internalType": "uint8",
              "name": "charisma",
              "type": "uint8"
            },
            {
              "internalType": "uint8",
              "name": "luck",
              "type": "uint8"
            },
            {
              "internalType": "uint8",
              "name": "level",
              "type": "uint8"
            },
            {
              "internalType": "uint8",
              "name": "pointsToSpend",
              "type": "uint8"
            },
            {
              "internalType": "uint256",
              "name": "xp",
              "type": "uint256"
            }
          ],
          "indexed": false,
          "internalType": "struct PlayerSheet.Stats",
          "name": "stats",
          "type": "tuple"
        }
      ],
      "name": "PlayerFinalized",
      "type": "event"
    },
    {
      "anonymous": false,
      "inputs": [
        {
          "indexed": false,
          "internalType": "uint256",
          "name": "tokenId",
          "type": "uint256"
        },
        {
          "components": [
            {
              "internalType": "uint8",
              "name": "constitution",
              "type": "uint8"
            },
            {
              "internalType": "uint8",
              "name": "dexterity",
              "type": "uint8"
            },
            {
              "internalType": "uint8",
              "name": "strength",
              "type": "uint8"
            },
            {
              "internalType": "uint8",
              "name": "wisdom",
              "type": "uint8"
            },
            {
              "internalType": "uint8",
              "name": "inteligence",
              "type": "uint8"
            },
            {
              "internalType": "uint8",
              "name": "charisma",
              "type": "uint8"
            },
            {
              "internalType": "uint8",
              "name": "luck",
              "type": "uint8"
            },
            {
              "internalType": "uint8",
              "name": "level",
              "type": "uint8"
            },
            {
              "internalType": "uint8",
              "name": "pointsToSpend",
              "type": "uint8"
            },
            {
              "internalType": "uint256",
              "name": "xp",
              "type": "uint256"
            }
          ],
          "indexed": false,
          "internalType": "struct PlayerSheet.Stats",
          "name": "stats",
          "type": "tuple"
        }
      ],
      "name": "PlayerLeveledUp",
      "type": "event"
    },
    {
      "anonymous": false,
      "inputs": [
        {
          "indexed": false,
          "internalType": "uint256",
          "name": "tokenId",
          "type": "uint256"
        },
        {
          "components": [
            {
              "internalType": "uint8",
              "name": "constitution",
              "type": "uint8"
            },
            {
              "internalType": "uint8",
              "name": "dexterity",
              "type": "uint8"
            },
            {
              "internalType": "uint8",
              "name": "strength",
              "type": "uint8"
            },
            {
              "internalType": "uint8",
              "name": "wisdom",
              "type": "uint8"
            },
            {
              "internalType": "uint8",
              "name": "inteligence",
              "type": "uint8"
            },
            {
              "internalType": "uint8",
              "name": "charisma",
              "type": "uint8"
            },
            {
              "internalType": "uint8",
              "name": "luck",
              "type": "uint8"
            },
            {
              "internalType": "uint8",
              "name": "level",
              "type": "uint8"
            },
            {
              "internalType": "uint8",
              "name": "pointsToSpend",
              "type": "uint8"
            },
            {
              "internalType": "uint256",
              "name": "xp",
              "type": "uint256"
            }
          ],
          "indexed": false,
          "internalType": "struct PlayerSheet.Stats",
          "name": "stats",
          "type": "tuple"
        },
        {
          "indexed": false,
          "internalType": "address",
          "name": "playerClass",
          "type": "address"
        },
        {
          "indexed": false,
          "internalType": "string",
          "name": "className",
          "type": "string"
        }
      ],
      "name": "PlayerMinted",
      "type": "event"
    },
    {
      "anonymous": false,
      "inputs": [
        {
          "indexed": true,
          "internalType": "address",
          "name": "from",
          "type": "address"
        },
        {
          "indexed": true,
          "internalType": "address",
          "name": "to",
          "type": "address"
        },
        {
          "indexed": true,
          "internalType": "uint256",
          "name": "tokenId",
          "type": "uint256"
        }
      ],
      "name": "Transfer",
      "type": "event"
    },
    {
      "inputs": [],
      "name": "STARTING_POINTS",
      "outputs": [
        {
          "internalType": "uint8",
          "name": "",
          "type": "uint8"
        }
      ],
      "stateMutability": "view",
      "type": "function"
    },
    {
      "inputs": [
        {
          "components": [
            {
              "internalType": "uint8",
              "name": "constitution",
              "type": "uint8"
            },
            {
              "internalType": "uint8",
              "name": "dexterity",
              "type": "uint8"
            },
            {
              "internalType": "uint8",
              "name": "strength",
              "type": "uint8"
            },
            {
              "internalType": "uint8",
              "name": "wisdom",
              "type": "uint8"
            },
            {
              "internalType": "uint8",
              "name": "inteligence",
              "type": "uint8"
            },
            {
              "internalType": "uint8",
              "name": "charisma",
              "type": "uint8"
            },
            {
              "internalType": "uint8",
              "name": "luck",
              "type": "uint8"
            },
            {
              "internalType": "uint8",
              "name": "level",
              "type": "uint8"
            },
            {
              "internalType": "uint8",
              "name": "pointsToSpend",
              "type": "uint8"
            },
            {
              "internalType": "uint256",
              "name": "xp",
              "type": "uint256"
            }
          ],
          "internalType": "struct PlayerSheet.Stats",
          "name": "playerStat",
          "type": "tuple"
        },
        {
          "components": [
            {
              "internalType": "enum Gear.Stat",
              "name": "stat",
              "type": "uint8"
            },
            {
              "internalType": "uint8",
              "name": "mod",
              "type": "uint8"
            }
          ],
          "internalType": "struct Gear.Modifier",
          "name": "mod",
          "type": "tuple"
        }
      ],
      "name": "addModifierBonus",
      "outputs": [
        {
          "components": [
            {
              "internalType": "uint8",
              "name": "constitution",
              "type": "uint8"
            },
            {
              "internalType": "uint8",
              "name": "dexterity",
              "type": "uint8"
            },
            {
              "internalType": "uint8",
              "name": "strength",
              "type": "uint8"
            },
            {
              "internalType": "uint8",
              "name": "wisdom",
              "type": "uint8"
            },
            {
              "internalType": "uint8",
              "name": "inteligence",
              "type": "uint8"
            },
            {
              "internalType": "uint8",
              "name": "charisma",
              "type": "uint8"
            },
            {
              "internalType": "uint8",
              "name": "luck",
              "type": "uint8"
            },
            {
              "internalType": "uint8",
              "name": "level",
              "type": "uint8"
            },
            {
              "internalType": "uint8",
              "name": "pointsToSpend",
              "type": "uint8"
            },
            {
              "internalType": "uint256",
              "name": "xp",
              "type": "uint256"
            }
          ],
          "internalType": "struct PlayerSheet.Stats",
          "name": "",
          "type": "tuple"
        }
      ],
      "stateMutability": "pure",
      "type": "function"
    },
    {
      "inputs": [
        {
          "internalType": "address",
          "name": "to",
          "type": "address"
        },
        {
          "internalType": "uint256",
          "name": "tokenId",
          "type": "uint256"
        }
      ],
      "name": "approve",
      "outputs": [],
      "stateMutability": "nonpayable",
      "type": "function"
    },
    {
      "inputs": [
        {
          "internalType": "address",
          "name": "owner",
          "type": "address"
        }
      ],
      "name": "balanceOf",
      "outputs": [
        {
          "internalType": "uint256",
          "name": "",
          "type": "uint256"
        }
      ],
      "stateMutability": "view",
      "type": "function"
    },
    {
      "inputs": [],
      "name": "className",
      "outputs": [
        {
          "internalType": "string",
          "name": "",
          "type": "string"
        }
      ],
      "stateMutability": "pure",
      "type": "function"
    },
    {
      "inputs": [
        {
          "internalType": "uint256",
          "name": "playerTokenId",
          "type": "uint256"
        },
        {
          "internalType": "uint256",
          "name": "gearTokenId",
          "type": "uint256"
        },
        {
          "internalType": "uint256",
          "name": "slot",
          "type": "uint256"
        }
      ],
      "name": "equipGear",
      "outputs": [],
      "stateMutability": "nonpayable",
      "type": "function"
    },
    {
      "inputs": [
        {
          "internalType": "uint256",
          "name": "tokenId",
          "type": "uint256"
        },
        {
          "components": [
            {
              "internalType": "uint8",
              "name": "constitution",
              "type": "uint8"
            },
            {
              "internalType": "uint8",
              "name": "dexterity",
              "type": "uint8"
            },
            {
              "internalType": "uint8",
              "name": "strength",
              "type": "uint8"
            },
            {
              "internalType": "uint8",
              "name": "wisdom",
              "type": "uint8"
            },
            {
              "internalType": "uint8",
              "name": "inteligence",
              "type": "uint8"
            },
            {
              "internalType": "uint8",
              "name": "charisma",
              "type": "uint8"
            },
            {
              "internalType": "uint8",
              "name": "luck",
              "type": "uint8"
            },
            {
              "internalType": "uint8",
              "name": "level",
              "type": "uint8"
            },
            {
              "internalType": "uint8",
              "name": "pointsToSpend",
              "type": "uint8"
            },
            {
              "internalType": "uint256",
              "name": "xp",
              "type": "uint256"
            }
          ],
          "internalType": "struct PlayerSheet.Stats",
          "name": "newStats",
          "type": "tuple"
        }
      ],
      "name": "finalizePlayer",
      "outputs": [],
      "stateMutability": "nonpayable",
      "type": "function"
    },
    {
      "inputs": [
        {
          "internalType": "uint256",
          "name": "tokenId",
          "type": "uint256"
        }
      ],
      "name": "getApproved",
      "outputs": [
        {
          "internalType": "address",
          "name": "",
          "type": "address"
        }
      ],
      "stateMutability": "view",
      "type": "function"
    },
    {
      "inputs": [
        {
          "internalType": "uint256",
          "name": "tokenId",
          "type": "uint256"
        }
      ],
      "name": "getDamage",
      "outputs": [
        {
          "internalType": "uint8",
          "name": "",
          "type": "uint8"
        }
      ],
      "stateMutability": "view",
      "type": "function"
    },
    {
      "inputs": [
        {
          "internalType": "uint256",
          "name": "tokenId",
          "type": "uint256"
        }
      ],
      "name": "getGearBonus",
      "outputs": [
        {
          "components": [
            {
              "internalType": "uint8",
              "name": "constitution",
              "type": "uint8"
            },
            {
              "internalType": "uint8",
              "name": "dexterity",
              "type": "uint8"
            },
            {
              "internalType": "uint8",
              "name": "strength",
              "type": "uint8"
            },
            {
              "internalType": "uint8",
              "name": "wisdom",
              "type": "uint8"
            },
            {
              "internalType": "uint8",
              "name": "inteligence",
              "type": "uint8"
            },
            {
              "internalType": "uint8",
              "name": "charisma",
              "type": "uint8"
            },
            {
              "internalType": "uint8",
              "name": "luck",
              "type": "uint8"
            },
            {
              "internalType": "uint8",
              "name": "level",
              "type": "uint8"
            },
            {
              "internalType": "uint8",
              "name": "pointsToSpend",
              "type": "uint8"
            },
            {
              "internalType": "uint256",
              "name": "xp",
              "type": "uint256"
            }
          ],
          "internalType": "struct PlayerSheet.Stats",
          "name": "",
          "type": "tuple"
        }
      ],
      "stateMutability": "view",
      "type": "function"
    },
    {
      "inputs": [
        {
          "internalType": "uint256",
          "name": "tokenId",
          "type": "uint256"
        }
      ],
      "name": "getHealth",
      "outputs": [
        {
          "internalType": "uint8",
          "name": "",
          "type": "uint8"
        }
      ],
      "stateMutability": "view",
      "type": "function"
    },
    {
      "inputs": [],
      "name": "healthPerLevel",
      "outputs": [
        {
          "internalType": "uint8",
          "name": "",
          "type": "uint8"
        }
      ],
      "stateMutability": "pure",
      "type": "function"
    },
    {
      "inputs": [
        {
          "internalType": "address",
          "name": "owner",
          "type": "address"
        },
        {
          "internalType": "address",
          "name": "operator",
          "type": "address"
        }
      ],
      "name": "isApprovedForAll",
      "outputs": [
        {
          "internalType": "bool",
          "name": "",
          "type": "bool"
        }
      ],
      "stateMutability": "view",
      "type": "function"
    },
    {
      "inputs": [
        {
          "internalType": "uint256",
          "name": "tokenId",
          "type": "uint256"
        }
      ],
      "name": "levelUp",
      "outputs": [],
      "stateMutability": "nonpayable",
      "type": "function"
    },
    {
      "inputs": [],
      "name": "mint",
      "outputs": [],
      "stateMutability": "nonpayable",
      "type": "function"
    },
    {
      "inputs": [],
      "name": "name",
      "outputs": [
        {
          "internalType": "string",
          "name": "",
          "type": "string"
        }
      ],
      "stateMutability": "view",
      "type": "function"
    },
    {
      "inputs": [
        {
          "internalType": "uint256",
          "name": "tokenId",
          "type": "uint256"
        }
      ],
      "name": "ownerOf",
      "outputs": [
        {
          "internalType": "address",
          "name": "",
          "type": "address"
        }
      ],
      "stateMutability": "view",
      "type": "function"
    },
    {
      "inputs": [
        {
          "internalType": "uint256",
          "name": "tokenId",
          "type": "uint256"
        },
        {
          "internalType": "uint256",
          "name": "",
          "type": "uint256"
        }
      ],
      "name": "playerGear",
      "outputs": [
        {
          "internalType": "uint256",
          "name": "",
          "type": "uint256"
        }
      ],
      "stateMutability": "view",
      "type": "function"
    },
    {
      "inputs": [
        {
          "internalType": "uint256",
          "name": "tokenId",
          "type": "uint256"
        }
      ],
      "name": "playerStats",
      "outputs": [
        {
          "internalType": "uint8",
          "name": "constitution",
          "type": "uint8"
        },
        {
          "internalType": "uint8",
          "name": "dexterity",
          "type": "uint8"
        },
        {
          "internalType": "uint8",
          "name": "strength",
          "type": "uint8"
        },
        {
          "internalType": "uint8",
          "name": "wisdom",
          "type": "uint8"
        },
        {
          "internalType": "uint8",
          "name": "inteligence",
          "type": "uint8"
        },
        {
          "internalType": "uint8",
          "name": "charisma",
          "type": "uint8"
        },
        {
          "internalType": "uint8",
          "name": "luck",
          "type": "uint8"
        },
        {
          "internalType": "uint8",
          "name": "level",
          "type": "uint8"
        },
        {
          "internalType": "uint8",
          "name": "pointsToSpend",
          "type": "uint8"
        },
        {
          "internalType": "uint256",
          "name": "xp",
          "type": "uint256"
        }
      ],
      "stateMutability": "view",
      "type": "function"
    },
    {
      "inputs": [],
      "name": "registry",
      "outputs": [
        {
          "internalType": "contract Registry",
          "name": "",
          "type": "address"
        }
      ],
      "stateMutability": "view",
      "type": "function"
    },
    {
      "inputs": [
        {
          "internalType": "uint256",
          "name": "playerTokenId",
          "type": "uint256"
        },
        {
          "internalType": "uint256",
          "name": "slot",
          "type": "uint256"
        }
      ],
      "name": "removeGear",
      "outputs": [],
      "stateMutability": "nonpayable",
      "type": "function"
    },
    {
      "inputs": [
        {
          "internalType": "address",
          "name": "from",
          "type": "address"
        },
        {
          "internalType": "address",
          "name": "to",
          "type": "address"
        },
        {
          "internalType": "uint256",
          "name": "tokenId",
          "type": "uint256"
        }
      ],
      "name": "safeTransferFrom",
      "outputs": [],
      "stateMutability": "nonpayable",
      "type": "function"
    },
    {
      "inputs": [
        {
          "internalType": "address",
          "name": "from",
          "type": "address"
        },
        {
          "internalType": "address",
          "name": "to",
          "type": "address"
        },
        {
          "internalType": "uint256",
          "name": "tokenId",
          "type": "uint256"
        },
        {
          "internalType": "bytes",
          "name": "data",
          "type": "bytes"
        }
      ],
      "name": "safeTransferFrom",
      "outputs": [],
      "stateMutability": "nonpayable",
      "type": "function"
    },
    {
      "inputs": [
        {
          "internalType": "address",
          "name": "operator",
          "type": "address"
        },
        {
          "internalType": "bool",
          "name": "approved",
          "type": "bool"
        }
      ],
      "name": "setApprovalForAll",
      "outputs": [],
      "stateMutability": "nonpayable",
      "type": "function"
    },
    {
      "inputs": [
        {
          "internalType": "bytes4",
          "name": "interfaceId",
          "type": "bytes4"
        }
      ],
      "name": "supportsInterface",
      "outputs": [
        {
          "internalType": "bool",
          "name": "",
          "type": "bool"
        }
      ],
      "stateMutability": "view",
      "type": "function"
    },
    {
      "inputs": [],
      "name": "symbol",
      "outputs": [
        {
          "internalType": "string",
          "name": "",
          "type": "string"
        }
      ],
      "stateMutability": "view",
      "type": "function"
    },
    {
      "inputs": [
        {
          "internalType": "uint256",
          "name": "tokenId",
          "type": "uint256"
        }
      ],
      "name": "tokenURI",
      "outputs": [
        {
          "internalType": "string",
          "name": "",
          "type": "string"
        }
      ],
      "stateMutability": "view",
      "type": "function"
    },
    {
      "inputs": [],
      "name": "totalSupply",
      "outputs": [
        {
          "internalType": "uint256",
          "name": "",
          "type": "uint256"
        }
      ],
      "stateMutability": "view",
      "type": "function"
    },
    {
      "inputs": [
        {
          "internalType": "address",
          "name": "from",
          "type": "address"
        },
        {
          "internalType": "address",
          "name": "to",
          "type": "address"
        },
        {
          "internalType": "uint256",
          "name": "tokenId",
          "type": "uint256"
        }
      ],
      "name": "transferFrom",
      "outputs": [],
      "stateMutability": "nonpayable",
      "type": "function"
    },
    {
      "inputs": [],
      "name": "vrf",
      "outputs": [
        {
          "internalType": "contract VRF",
          "name": "",
          "type": "address"
        }
      ],
      "stateMutability": "view",
      "type": "function"
    }
  ],
  "bytecode": "0x60806040523480156200001157600080fd5b506040516200575838038062005758833981810160405281019062000037919062000332565b838381600090816200004a91906200062d565b5080600190816200005c91906200062d565b50505081600760006101000a81548173ffffffffffffffffffffffffffffffffffffffff021916908373ffffffffffffffffffffffffffffffffffffffff16021790555080600660006101000a81548173ffffffffffffffffffffffffffffffffffffffff021916908373ffffffffffffffffffffffffffffffffffffffff1602179055507f17396ca29744cd4b7b0e9302e6e008db621a5dee62a0c485adb7bcba3ca6c600620001126200013560201b60201c565b306040516200012392919062000777565b60405180910390a150505050620007ab565b606090565b6000604051905090565b600080fd5b600080fd5b600080fd5b600080fd5b6000601f19601f8301169050919050565b7f4e487b7100000000000000000000000000000000000000000000000000000000600052604160045260246000fd5b620001a38262000158565b810181811067ffffffffffffffff82111715620001c557620001c462000169565b5b80604052505050565b6000620001da6200013a565b9050620001e8828262000198565b919050565b600067ffffffffffffffff8211156200020b576200020a62000169565b5b620002168262000158565b9050602081019050919050565b60005b838110156200024357808201518184015260208101905062000226565b60008484015250505050565b6000620002666200026084620001ed565b620001ce565b90508281526020810184848401111562000285576200028462000153565b5b6200029284828562000223565b509392505050565b600082601f830112620002b257620002b16200014e565b5b8151620002c48482602086016200024f565b91505092915050565b600073ffffffffffffffffffffffffffffffffffffffff82169050919050565b6000620002fa82620002cd565b9050919050565b6200030c81620002ed565b81146200031857600080fd5b50565b6000815190506200032c8162000301565b92915050565b600080600080608085870312156200034f576200034e62000144565b5b600085015167ffffffffffffffff81111562000370576200036f62000149565b5b6200037e878288016200029a565b945050602085015167ffffffffffffffff811115620003a257620003a162000149565b5b620003b0878288016200029a565b9350506040620003c3878288016200031b565b9250506060620003d6878288016200031b565b91505092959194509250565b600081519050919050565b7f4e487b7100000000000000000000000000000000000000000000000000000000600052602260045260246000fd5b600060028204905060018216806200043557607f821691505b6020821081036200044b576200044a620003ed565b5b50919050565b60008190508160005260206000209050919050565b60006020601f8301049050919050565b600082821b905092915050565b600060088302620004b57fffffffffffffffffffffffffffffffffffffffffffffffffffffffffffffffff8262000476565b620004c1868362000476565b95508019841693508086168417925050509392505050565b6000819050919050565b6000819050919050565b60006200050e620005086200050284620004d9565b620004e3565b620004d9565b9050919050565b6000819050919050565b6200052a83620004ed565b62000542620005398262000515565b84845462000483565b825550505050565b600090565b620005596200054a565b620005668184846200051f565b505050565b5b818110156200058e57620005826000826200054f565b6001810190506200056c565b5050565b601f821115620005dd57620005a78162000451565b620005b28462000466565b81016020851015620005c2578190505b620005da620005d18562000466565b8301826200056b565b50505b505050565b600082821c905092915050565b60006200060260001984600802620005e2565b1980831691505092915050565b60006200061d8383620005ef565b9150826002028217905092915050565b6200063882620003e2565b67ffffffffffffffff81111562000654576200065362000169565b5b6200066082546200041c565b6200066d82828562000592565b600060209050601f831160018114620006a5576000841562000690578287015190505b6200069c85826200060f565b8655506200070c565b601f198416620006b58662000451565b60005b82811015620006df57848901518255600182019150602085019450602081019050620006b8565b86831015620006ff5784890151620006fb601f891682620005ef565b8355505b6001600288020188555050505b505050505050565b600082825260208201905092915050565b60006200073282620003e2565b6200073e818562000714565b93506200075081856020860162000223565b6200075b8162000158565b840191505092915050565b6200077181620002ed565b82525050565b6000604082019050818103600083015262000793818562000725565b9050620007a4602083018462000766565b9392505050565b614f9d80620007bb6000396000f3fe608060405234801561001057600080fd5b50600436106101d85760003560e01c80635390788f1161010457806395d89b41116100a2578063bb10662e11610071578063bb10662e14610584578063c87b56dd146105a0578063debdcc4f146105d0578063e985e9c5146105ec576101d8565b806395d89b41146104f5578063a22cb46514610513578063b776fc731461052f578063b88d4fde14610568576101d8565b806370a08231116100de57806370a08231146104475780637b103999146104775780637cd7f3bb146104955780638e2541b9146104c5576101d8565b80635390788f146103c95780635395acf9146103f95780636352211e14610417576101d8565b80630ce90ec21161017c5780631fef63491161014b5780631fef63491461034357806323b872dd146103615780633fc70f2c1461037d57806342842e0e146103ad576101d8565b80630ce90ec2146102e35780631249c58b146102ff57806317d057181461030957806318160ddd14610325576101d8565b806306fdde03116101b857806306fdde031461025b578063081812fc14610279578063095ea7b3146102a95780630c949043146102c5576101d8565b806224b385146101dd578062c51f8c1461020d57806301ffc9a71461022b575b600080fd5b6101f760048036038101906101f2919061302a565b61061c565b604051610204919061314e565b60405180910390f35b61021561090c565b60405161022291906131fa565b60405180910390f35b61024560048036038101906102409190613274565b610911565b60405161025291906132bc565b60405180910390f35b6102636109f3565b60405161027091906131fa565b60405180910390f35b610293600480360381019061028e919061302a565b610a85565b6040516102a09190613318565b60405180910390f35b6102c360048036038101906102be919061335f565b610acb565b005b6102cd610be2565b6040516102da91906133fe565b60405180910390f35b6102fd60048036038101906102f8919061302a565b610c08565b005b610307610d57565b005b610323600480360381019061031e9190613419565b611030565b005b61032d61153d565b60405161033a919061347b565b60405180910390f35b61034b611543565b60405161035891906134a5565b60405180910390f35b61037b600480360381019061037691906134c0565b611548565b005b6103976004803603810190610392919061302a565b6115a8565b6040516103a491906134a5565b60405180910390f35b6103c760048036038101906103c291906134c0565b6115af565b005b6103e360048036038101906103de919061372a565b6115cf565b6040516103f0919061314e565b60405180910390f35b610401611636565b60405161040e91906134a5565b60405180910390f35b610431600480360381019061042c919061302a565b61163b565b60405161043e9190613318565b60405180910390f35b610461600480360381019061045c919061376c565b6116c1565b60405161046e919061347b565b60405180910390f35b61047f611778565b60405161048c91906137ba565b60405180910390f35b6104af60048036038101906104aa919061302a565b61179e565b6040516104bc91906134a5565b60405180910390f35b6104df60048036038101906104da91906137d5565b6117a5565b6040516104ec919061347b565b60405180910390f35b6104fd6117cd565b60405161050a91906131fa565b60405180910390f35b61052d60048036038101906105289190613841565b61185f565b005b6105496004803603810190610544919061302a565b611875565b60405161055f9a99989796959493929190613881565b60405180910390f35b610582600480360381019061057d91906139d7565b61193e565b005b61059e60048036038101906105999190613a5a565b6119a0565b005b6105ba60048036038101906105b5919061302a565b611dfa565b6040516105c791906131fa565b60405180910390f35b6105ea60048036038101906105e591906137d5565b611e62565b005b61060660048036038101906106019190613a9b565b611ff0565b60405161061391906132bc565b60405180910390f35b610624612f72565b600060096000848152602001908152602001600020604051806101400160405290816000820160009054906101000a900460ff1660ff1660ff1681526020016000820160019054906101000a900460ff1660ff1660ff1681526020016000820160029054906101000a900460ff1660ff1660ff1681526020016000820160039054906101000a900460ff1660ff1660ff1681526020016000820160049054906101000a900460ff1660ff1660ff1681526020016000820160059054906101000a900460ff1660ff1660ff1681526020016000820160069054906101000a900460ff1660ff1660ff1681526020016000820160079054906101000a900460ff1660ff1660ff1681526020016000820160089054906101000a900460ff1660ff1660ff168152602001600182015481525050905060005b6005811015610902576000600a6000868152602001908152602001600020826005811061078957610788613adb565b5b015490506000600760009054906101000a900473ffffffffffffffffffffffffffffffffffffffff1673ffffffffffffffffffffffffffffffffffffffff166325f04af06040518163ffffffff1660e01b8152600401602060405180830381865afa1580156107fc573d6000803e3d6000fd5b505050506040513d601f19601f820116820180604052508101906108209190613b1f565b73ffffffffffffffffffffffffffffffffffffffff16632c149979836040518263ffffffff1660e01b8152600401610858919061347b565b600060405180830381865afa158015610875573d6000803e3d6000fd5b505050506040513d6000823e3d601f19601f8201168201806040525081019061089e9190613cb3565b50905060005b81518110156108ec5760008282815181106108c2576108c1613adb565b5b602002602001015190506108d686826115cf565b95505080806108e490613d3e565b9150506108a4565b50505080806108fa90613d3e565b915050610759565b5080915050919050565b606090565b60007f80ac58cd000000000000000000000000000000000000000000000000000000007bffffffffffffffffffffffffffffffffffffffffffffffffffffffff1916827bffffffffffffffffffffffffffffffffffffffffffffffffffffffff191614806109dc57507f5b5e139f000000000000000000000000000000000000000000000000000000007bffffffffffffffffffffffffffffffffffffffffffffffffffffffff1916827bffffffffffffffffffffffffffffffffffffffffffffffffffffffff1916145b806109ec57506109eb82612084565b5b9050919050565b606060008054610a0290613db5565b80601f0160208091040260200160405190810160405280929190818152602001828054610a2e90613db5565b8015610a7b5780601f10610a5057610100808354040283529160200191610a7b565b820191906000526020600020905b815481529060010190602001808311610a5e57829003601f168201915b5050505050905090565b6000610a90826120ee565b6004600083815260200190815260200160002060009054906101000a900473ffffffffffffffffffffffffffffffffffffffff169050919050565b6000610ad68261163b565b90508073ffffffffffffffffffffffffffffffffffffffff168373ffffffffffffffffffffffffffffffffffffffff1603610b46576040517f08c379a0000000000000000000000000000000000000000000000000000000008152600401610b3d90613e58565b60405180910390fd5b8073ffffffffffffffffffffffffffffffffffffffff16610b65612139565b73ffffffffffffffffffffffffffffffffffffffff161480610b945750610b9381610b8e612139565b611ff0565b5b610bd3576040517f08c379a0000000000000000000000000000000000000000000000000000000008152600401610bca90613eea565b60405180910390fd5b610bdd8383612141565b505050565b600660009054906101000a900473ffffffffffffffffffffffffffffffffffffffff1681565b3373ffffffffffffffffffffffffffffffffffffffff16610c288261163b565b73ffffffffffffffffffffffffffffffffffffffff1614610c7e576040517f08c379a0000000000000000000000000000000000000000000000000000000008152600401610c7590613f56565b60405180910390fd5b600060096000838152602001908152602001600020905080600001600781819054906101000a900460ff1680929190610cb690613f76565b91906101000a81548160ff021916908360ff1602179055505060058160000160088282829054906101000a900460ff16610cf09190613f9f565b92506101000a81548160ff021916908360ff1602179055507faa9ef026bd8493211efd481ad2e74e48ab3d3bffa036402a11312e9c96e8d1538260096000858152602001908152602001600020604051610d4b929190614266565b60405180910390a15050565b60086000815480929190610d6a90613d3e565b91905055506000600854905060006014600a600660009054906101000a900473ffffffffffffffffffffffffffffffffffffffff1673ffffffffffffffffffffffffffffffffffffffff1663dbdff2c16040518163ffffffff1660e01b8152600401602060405180830381865afa158015610de9573d6000803e3d6000fd5b505050506040513d601f19601f82011682018060405250810190610e0d91906142a5565b610e179190614301565b610e219190613f9f565b90506000604051806101400160405280600860ff168152602001600860ff168152602001600860ff168152602001600860ff168152602001600860ff168152602001600860ff168152602001600860ff168152602001600060ff1681526020018360ff16815260200160008152509050806009600085815260200190815260200160002060008201518160000160006101000a81548160ff021916908360ff16021790555060208201518160000160016101000a81548160ff021916908360ff16021790555060408201518160000160026101000a81548160ff021916908360ff16021790555060608201518160000160036101000a81548160ff021916908360ff16021790555060808201518160000160046101000a81548160ff021916908360ff16021790555060a08201518160000160056101000a81548160ff021916908360ff16021790555060c08201518160000160066101000a81548160ff021916908360ff16021790555060e08201518160000160076101000a81548160ff021916908360ff1602179055506101008201518160000160086101000a81548160ff021916908360ff16021790555061012082015181600101559050507f0a2daa275926a7368139a2c057ba45f101da6e3ed2c393d0bc2f84b3a488826b83823061100961090c565b6040516110199493929190614332565b60405180910390a161102b33846121fa565b505050565b600760009054906101000a900473ffffffffffffffffffffffffffffffffffffffff1673ffffffffffffffffffffffffffffffffffffffff1663bea80cea836040518263ffffffff1660e01b815260040161108b919061347b565b602060405180830381865afa1580156110a8573d6000803e3d6000fd5b505050506040513d601f19601f820116820180604052508101906110cc9190614396565b61110b576040517f08c379a00000000000000000000000000000000000000000000000000000000081526004016111029061440f565b60405180910390fd5b3373ffffffffffffffffffffffffffffffffffffffff1661112b8461163b565b73ffffffffffffffffffffffffffffffffffffffff1614611181576040517f08c379a000000000000000000000000000000000000000000000000000000000815260040161117890613f56565b60405180910390fd5b3373ffffffffffffffffffffffffffffffffffffffff16600760009054906101000a900473ffffffffffffffffffffffffffffffffffffffff1673ffffffffffffffffffffffffffffffffffffffff166325f04af06040518163ffffffff1660e01b8152600401602060405180830381865afa158015611205573d6000803e3d6000fd5b505050506040513d601f19601f820116820180604052508101906112299190613b1f565b73ffffffffffffffffffffffffffffffffffffffff16636352211e846040518263ffffffff1660e01b8152600401611261919061347b565b602060405180830381865afa15801561127e573d6000803e3d6000fd5b505050506040513d601f19601f820116820180604052508101906112a29190613b1f565b73ffffffffffffffffffffffffffffffffffffffff16146112f8576040517f08c379a00000000000000000000000000000000000000000000000000000000081526004016112ef9061447b565b60405180910390fd5b6005811061133b576040517f08c379a0000000000000000000000000000000000000000000000000000000008152600401611332906144e7565b60405180910390fd5b6000600a6000858152602001908152602001600020826005811061136257611361613adb565b5b0154146113a4576040517f08c379a000000000000000000000000000000000000000000000000000000000815260040161139b90614553565b60405180910390fd5b6000600760009054906101000a900473ffffffffffffffffffffffffffffffffffffffff1673ffffffffffffffffffffffffffffffffffffffff166325f04af06040518163ffffffff1660e01b8152600401602060405180830381865afa158015611413573d6000803e3d6000fd5b505050506040513d601f19601f820116820180604052508101906114379190613b1f565b73ffffffffffffffffffffffffffffffffffffffff16632c149979846040518263ffffffff1660e01b815260040161146f919061347b565b600060405180830381865afa15801561148c573d6000803e3d6000fd5b505050506040513d6000823e3d601f19601f820116820180604052508101906114b59190613cb3565b915050818160058111156114cc576114cb614573565b5b1461150c576040517f08c379a0000000000000000000000000000000000000000000000000000000008152600401611503906145ee565b60405180910390fd5b82600a6000868152602001908152602001600020836005811061153257611531613adb565b5b018190555050505050565b60085481565b600090565b611559611553612139565b82612218565b611598576040517f08c379a000000000000000000000000000000000000000000000000000000000815260040161158f90614680565b60405180910390fd5b6115a38383836122ad565b505050565b6000919050565b6115ca8383836040518060200160405280600081525061193e565b505050565b6115d7612f72565b600160078111156115eb576115ea614573565b5b8260000151600781111561160257611601614573565b5b0361162d5781602001518360000181815161161d9190613f9f565b91509060ff16908160ff16815250505b82905092915050565b600881565b600080611647836125a6565b9050600073ffffffffffffffffffffffffffffffffffffffff168173ffffffffffffffffffffffffffffffffffffffff16036116b8576040517f08c379a00000000000000000000000000000000000000000000000000000000081526004016116af906146ec565b60405180910390fd5b80915050919050565b60008073ffffffffffffffffffffffffffffffffffffffff168273ffffffffffffffffffffffffffffffffffffffff1603611731576040517f08c379a00000000000000000000000000000000000000000000000000000000081526004016117289061477e565b60405180910390fd5b600360008373ffffffffffffffffffffffffffffffffffffffff1673ffffffffffffffffffffffffffffffffffffffff168152602001908152602001600020549050919050565b600760009054906101000a900473ffffffffffffffffffffffffffffffffffffffff1681565b6000919050565b600a60205281600052604060002081600581106117c157600080fd5b01600091509150505481565b6060600180546117dc90613db5565b80601f016020809104026020016040519081016040528092919081815260200182805461180890613db5565b80156118555780601f1061182a57610100808354040283529160200191611855565b820191906000526020600020905b81548152906001019060200180831161183857829003601f168201915b5050505050905090565b61187161186a612139565b83836125e3565b5050565b60096020528060005260406000206000915090508060000160009054906101000a900460ff16908060000160019054906101000a900460ff16908060000160029054906101000a900460ff16908060000160039054906101000a900460ff16908060000160049054906101000a900460ff16908060000160059054906101000a900460ff16908060000160069054906101000a900460ff16908060000160079054906101000a900460ff16908060000160089054906101000a900460ff1690806001015490508a565b61194f611949612139565b83612218565b61198e576040517f08c379a000000000000000000000000000000000000000000000000000000000815260040161198590614680565b60405180910390fd5b61199a8484848461274f565b50505050565b600060096000848152602001908152602001600020905060008160000160089054906101000a900460ff1660ff1603611a0e576040517f08c379a0000000000000000000000000000000000000000000000000000000008152600401611a05906147ea565b60405180910390fd5b3373ffffffffffffffffffffffffffffffffffffffff16611a2e8461163b565b73ffffffffffffffffffffffffffffffffffffffff1614611a84576040517f08c379a0000000000000000000000000000000000000000000000000000000008152600401611a7b90613f56565b60405180910390fd5b600082610100015160ff1614611acf576040517f08c379a0000000000000000000000000000000000000000000000000000000008152600401611ac690614856565b60405180910390fd5b8160e0015160ff168160000160079054906101000a900460ff1660ff1614611b2c576040517f08c379a0000000000000000000000000000000000000000000000000000000008152600401611b23906148c2565b60405180910390fd5b816101200151816001015414611b77576040517f08c379a0000000000000000000000000000000000000000000000000000000008152600401611b6e9061492e565b60405180910390fd5b60008260000151905060008360200151905060008460400151905060008560600151905060008660800151905060008760a00151905060008860c001519050600081838587898b8d611bc99190613f9f565b611bd39190613f9f565b611bdd9190613f9f565b611be79190613f9f565b611bf19190613f9f565b611bfb9190613f9f565b905060008960000160089054906101000a900460ff1690508160ff16603882611c249190613f9f565b60ff1614611c67576040517f08c379a0000000000000000000000000000000000000000000000000000000008152600401611c5e9061499a565b60405180910390fd5b7f153f00bb727048f97078ad97d684e88c6be91e66d8466c6ce91e969653cf58a88c8c604051611c989291906149ba565b60405180910390a18a600960008e815260200190815260200160002060008201518160000160006101000a81548160ff021916908360ff16021790555060208201518160000160016101000a81548160ff021916908360ff16021790555060408201518160000160026101000a81548160ff021916908360ff16021790555060608201518160000160036101000a81548160ff021916908360ff16021790555060808201518160000160046101000a81548160ff021916908360ff16021790555060a08201518160000160056101000a81548160ff021916908360ff16021790555060c08201518160000160066101000a81548160ff021916908360ff16021790555060e08201518160000160076101000a81548160ff021916908360ff1602179055506101008201518160000160086101000a81548160ff021916908360ff1602179055506101208201518160010155905050505050505050505050505050565b6060611e05826120ee565b6000611e0f6127ab565b90506000815111611e2f5760405180602001604052806000815250611e5a565b80611e39846127c2565b604051602001611e4a929190614a20565b6040516020818303038152906040525b915050919050565b3373ffffffffffffffffffffffffffffffffffffffff16611e828361163b565b73ffffffffffffffffffffffffffffffffffffffff1614611ed8576040517f08c379a0000000000000000000000000000000000000000000000000000000008152600401611ecf90613f56565b60405180910390fd5b60058110611f1b576040517f08c379a0000000000000000000000000000000000000000000000000000000008152600401611f12906144e7565b60405180910390fd5b6000600a60008481526020019081526020016000208260058110611f4257611f41613adb565b5b015403611f84576040517f08c379a0000000000000000000000000000000000000000000000000000000008152600401611f7b90614a90565b60405180910390fd5b6000600a60008481526020019081526020016000208260058110611fab57611faa613adb565b5b01819055507f801a7918d051f14dfaa98d3099081b008ea3d456d48ad58366866a2aaa36735182600080604051611fe493929190614aeb565b60405180910390a15050565b6000600560008473ffffffffffffffffffffffffffffffffffffffff1673ffffffffffffffffffffffffffffffffffffffff16815260200190815260200160002060008373ffffffffffffffffffffffffffffffffffffffff1673ffffffffffffffffffffffffffffffffffffffff16815260200190815260200160002060009054906101000a900460ff16905092915050565b60007f01ffc9a7000000000000000000000000000000000000000000000000000000007bffffffffffffffffffffffffffffffffffffffffffffffffffffffff1916827bffffffffffffffffffffffffffffffffffffffffffffffffffffffff1916149050919050565b6120f781612890565b612136576040517f08c379a000000000000000000000000000000000000000000000000000000000815260040161212d906146ec565b60405180910390fd5b50565b600033905090565b816004600083815260200190815260200160002060006101000a81548173ffffffffffffffffffffffffffffffffffffffff021916908373ffffffffffffffffffffffffffffffffffffffff160217905550808273ffffffffffffffffffffffffffffffffffffffff166121b48361163b565b73ffffffffffffffffffffffffffffffffffffffff167f8c5be1e5ebec7d5bd14f71427d1e84f3dd0314c0f7b2291e5b200ac8c7c3b92560405160405180910390a45050565b6122148282604051806020016040528060008152506128d1565b5050565b6000806122248361163b565b90508073ffffffffffffffffffffffffffffffffffffffff168473ffffffffffffffffffffffffffffffffffffffff16148061226657506122658185611ff0565b5b806122a457508373ffffffffffffffffffffffffffffffffffffffff1661228c84610a85565b73ffffffffffffffffffffffffffffffffffffffff16145b91505092915050565b8273ffffffffffffffffffffffffffffffffffffffff166122cd8261163b565b73ffffffffffffffffffffffffffffffffffffffff1614612323576040517f08c379a000000000000000000000000000000000000000000000000000000000815260040161231a90614b94565b60405180910390fd5b600073ffffffffffffffffffffffffffffffffffffffff168273ffffffffffffffffffffffffffffffffffffffff1603612392576040517f08c379a000000000000000000000000000000000000000000000000000000000815260040161238990614c26565b60405180910390fd5b61239f838383600161292c565b8273ffffffffffffffffffffffffffffffffffffffff166123bf8261163b565b73ffffffffffffffffffffffffffffffffffffffff1614612415576040517f08c379a000000000000000000000000000000000000000000000000000000000815260040161240c90614b94565b60405180910390fd5b6004600082815260200190815260200160002060006101000a81549073ffffffffffffffffffffffffffffffffffffffff02191690556001600360008573ffffffffffffffffffffffffffffffffffffffff1673ffffffffffffffffffffffffffffffffffffffff168152602001908152602001600020600082825403925050819055506001600360008473ffffffffffffffffffffffffffffffffffffffff1673ffffffffffffffffffffffffffffffffffffffff16815260200190815260200160002060008282540192505081905550816002600083815260200190815260200160002060006101000a81548173ffffffffffffffffffffffffffffffffffffffff021916908373ffffffffffffffffffffffffffffffffffffffff160217905550808273ffffffffffffffffffffffffffffffffffffffff168473ffffffffffffffffffffffffffffffffffffffff167fddf252ad1be2c89b69c2b068fc378daa952ba7f163c4a11628f55a4df523b3ef60405160405180910390a46125a18383836001612a52565b505050565b60006002600083815260200190815260200160002060009054906101000a900473ffffffffffffffffffffffffffffffffffffffff169050919050565b8173ffffffffffffffffffffffffffffffffffffffff168373ffffffffffffffffffffffffffffffffffffffff1603612651576040517f08c379a000000000000000000000000000000000000000000000000000000000815260040161264890614c92565b60405180910390fd5b80600560008573ffffffffffffffffffffffffffffffffffffffff1673ffffffffffffffffffffffffffffffffffffffff16815260200190815260200160002060008473ffffffffffffffffffffffffffffffffffffffff1673ffffffffffffffffffffffffffffffffffffffff16815260200190815260200160002060006101000a81548160ff0219169083151502179055508173ffffffffffffffffffffffffffffffffffffffff168373ffffffffffffffffffffffffffffffffffffffff167f17307eab39ab6107e8899845ad3d59bd9653f200f220920489ca2b5937696c318360405161274291906132bc565b60405180910390a3505050565b61275a8484846122ad565b61276684848484612a58565b6127a5576040517f08c379a000000000000000000000000000000000000000000000000000000000815260040161279c90614d24565b60405180910390fd5b50505050565b606060405180602001604052806000815250905090565b6060600060016127d184612bdf565b01905060008167ffffffffffffffff8111156127f0576127ef613518565b5b6040519080825280601f01601f1916602001820160405280156128225781602001600182028036833780820191505090505b509050600082602001820190505b600115612885578080600190039150507f3031323334353637383961626364656600000000000000000000000000000000600a86061a8153600a8581612879576128786142d2565b5b04945060008503612830575b819350505050919050565b60008073ffffffffffffffffffffffffffffffffffffffff166128b2836125a6565b73ffffffffffffffffffffffffffffffffffffffff1614159050919050565b6128db8383612d32565b6128e86000848484612a58565b612927576040517f08c379a000000000000000000000000000000000000000000000000000000000815260040161291e90614d24565b60405180910390fd5b505050565b6001811115612a4c57600073ffffffffffffffffffffffffffffffffffffffff168473ffffffffffffffffffffffffffffffffffffffff16146129c05780600360008673ffffffffffffffffffffffffffffffffffffffff1673ffffffffffffffffffffffffffffffffffffffff16815260200190815260200160002060008282546129b89190614d44565b925050819055505b600073ffffffffffffffffffffffffffffffffffffffff168373ffffffffffffffffffffffffffffffffffffffff1614612a4b5780600360008573ffffffffffffffffffffffffffffffffffffffff1673ffffffffffffffffffffffffffffffffffffffff1681526020019081526020016000206000828254612a439190614d78565b925050819055505b5b50505050565b50505050565b6000612a798473ffffffffffffffffffffffffffffffffffffffff16612f4f565b15612bd2578373ffffffffffffffffffffffffffffffffffffffff1663150b7a02612aa2612139565b8786866040518563ffffffff1660e01b8152600401612ac49493929190614e01565b6020604051808303816000875af1925050508015612b0057506040513d601f19601f82011682018060405250810190612afd9190614e62565b60015b612b82573d8060008114612b30576040519150601f19603f3d011682016040523d82523d6000602084013e612b35565b606091505b506000815103612b7a576040517f08c379a0000000000000000000000000000000000000000000000000000000008152600401612b7190614d24565b60405180910390fd5b805181602001fd5b63150b7a0260e01b7bffffffffffffffffffffffffffffffffffffffffffffffffffffffff1916817bffffffffffffffffffffffffffffffffffffffffffffffffffffffff191614915050612bd7565b600190505b949350505050565b600080600090507a184f03e93ff9f4daa797ed6e38ed64bf6a1f0100000000000000008310612c3d577a184f03e93ff9f4daa797ed6e38ed64bf6a1f0100000000000000008381612c3357612c326142d2565b5b0492506040810190505b6d04ee2d6d415b85acef81000000008310612c7a576d04ee2d6d415b85acef81000000008381612c7057612c6f6142d2565b5b0492506020810190505b662386f26fc100008310612ca957662386f26fc100008381612c9f57612c9e6142d2565b5b0492506010810190505b6305f5e1008310612cd2576305f5e1008381612cc857612cc76142d2565b5b0492506008810190505b6127108310612cf7576127108381612ced57612cec6142d2565b5b0492506004810190505b60648310612d1a5760648381612d1057612d0f6142d2565b5b0492506002810190505b600a8310612d29576001810190505b80915050919050565b600073ffffffffffffffffffffffffffffffffffffffff168273ffffffffffffffffffffffffffffffffffffffff1603612da1576040517f08c379a0000000000000000000000000000000000000000000000000000000008152600401612d9890614edb565b60405180910390fd5b612daa81612890565b15612dea576040517f08c379a0000000000000000000000000000000000000000000000000000000008152600401612de190614f47565b60405180910390fd5b612df860008383600161292c565b612e0181612890565b15612e41576040517f08c379a0000000000000000000000000000000000000000000000000000000008152600401612e3890614f47565b60405180910390fd5b6001600360008473ffffffffffffffffffffffffffffffffffffffff1673ffffffffffffffffffffffffffffffffffffffff16815260200190815260200160002060008282540192505081905550816002600083815260200190815260200160002060006101000a81548173ffffffffffffffffffffffffffffffffffffffff021916908373ffffffffffffffffffffffffffffffffffffffff160217905550808273ffffffffffffffffffffffffffffffffffffffff16600073ffffffffffffffffffffffffffffffffffffffff167fddf252ad1be2c89b69c2b068fc378daa952ba7f163c4a11628f55a4df523b3ef60405160405180910390a4612f4b600083836001612a52565b5050565b6000808273ffffffffffffffffffffffffffffffffffffffff163b119050919050565b604051806101400160405280600060ff168152602001600060ff168152602001600060ff168152602001600060ff168152602001600060ff168152602001600060ff168152602001600060ff168152602001600060ff168152602001600060ff168152602001600081525090565b6000604051905090565b600080fd5b600080fd5b6000819050919050565b61300781612ff4565b811461301257600080fd5b50565b60008135905061302481612ffe565b92915050565b6000602082840312156130405761303f612fea565b5b600061304e84828501613015565b91505092915050565b600060ff82169050919050565b61306d81613057565b82525050565b61307c81612ff4565b82525050565b610140820160008201516130996000850182613064565b5060208201516130ac6020850182613064565b5060408201516130bf6040850182613064565b5060608201516130d26060850182613064565b5060808201516130e56080850182613064565b5060a08201516130f860a0850182613064565b5060c082015161310b60c0850182613064565b5060e082015161311e60e0850182613064565b50610100820151613133610100850182613064565b50610120820151613148610120850182613073565b50505050565b6000610140820190506131646000830184613082565b92915050565b600081519050919050565b600082825260208201905092915050565b60005b838110156131a4578082015181840152602081019050613189565b60008484015250505050565b6000601f19601f8301169050919050565b60006131cc8261316a565b6131d68185613175565b93506131e6818560208601613186565b6131ef816131b0565b840191505092915050565b6000602082019050818103600083015261321481846131c1565b905092915050565b60007fffffffff0000000000000000000000000000000000000000000000000000000082169050919050565b6132518161321c565b811461325c57600080fd5b50565b60008135905061326e81613248565b92915050565b60006020828403121561328a57613289612fea565b5b60006132988482850161325f565b91505092915050565b60008115159050919050565b6132b6816132a1565b82525050565b60006020820190506132d160008301846132ad565b92915050565b600073ffffffffffffffffffffffffffffffffffffffff82169050919050565b6000613302826132d7565b9050919050565b613312816132f7565b82525050565b600060208201905061332d6000830184613309565b92915050565b61333c816132f7565b811461334757600080fd5b50565b60008135905061335981613333565b92915050565b6000806040838503121561337657613375612fea565b5b60006133848582860161334a565b925050602061339585828601613015565b9150509250929050565b6000819050919050565b60006133c46133bf6133ba846132d7565b61339f565b6132d7565b9050919050565b60006133d6826133a9565b9050919050565b60006133e8826133cb565b9050919050565b6133f8816133dd565b82525050565b600060208201905061341360008301846133ef565b92915050565b60008060006060848603121561343257613431612fea565b5b600061344086828701613015565b935050602061345186828701613015565b925050604061346286828701613015565b9150509250925092565b61347581612ff4565b82525050565b6000602082019050613490600083018461346c565b92915050565b61349f81613057565b82525050565b60006020820190506134ba6000830184613496565b92915050565b6000806000606084860312156134d9576134d8612fea565b5b60006134e78682870161334a565b93505060206134f88682870161334a565b925050604061350986828701613015565b9150509250925092565b600080fd5b7f4e487b7100000000000000000000000000000000000000000000000000000000600052604160045260246000fd5b613550826131b0565b810181811067ffffffffffffffff8211171561356f5761356e613518565b5b80604052505050565b6000613582612fe0565b905061358e8282613547565b919050565b61359c81613057565b81146135a757600080fd5b50565b6000813590506135b981613593565b92915050565b600061014082840312156135d6576135d5613513565b5b6135e1610140613578565b905060006135f1848285016135aa565b6000830152506020613605848285016135aa565b6020830152506040613619848285016135aa565b604083015250606061362d848285016135aa565b6060830152506080613641848285016135aa565b60808301525060a0613655848285016135aa565b60a08301525060c0613669848285016135aa565b60c08301525060e061367d848285016135aa565b60e083015250610100613692848285016135aa565b610100830152506101206136a884828501613015565b6101208301525092915050565b600881106136c257600080fd5b50565b6000813590506136d4816136b5565b92915050565b6000604082840312156136f0576136ef613513565b5b6136fa6040613578565b9050600061370a848285016136c5565b600083015250602061371e848285016135aa565b60208301525092915050565b600080610180838503121561374257613741612fea565b5b6000613750858286016135bf565b925050610140613762858286016136da565b9150509250929050565b60006020828403121561378257613781612fea565b5b60006137908482850161334a565b91505092915050565b60006137a4826133cb565b9050919050565b6137b481613799565b82525050565b60006020820190506137cf60008301846137ab565b92915050565b600080604083850312156137ec576137eb612fea565b5b60006137fa85828601613015565b925050602061380b85828601613015565b9150509250929050565b61381e816132a1565b811461382957600080fd5b50565b60008135905061383b81613815565b92915050565b6000806040838503121561385857613857612fea565b5b60006138668582860161334a565b92505060206138778582860161382c565b9150509250929050565b600061014082019050613897600083018d613496565b6138a4602083018c613496565b6138b1604083018b613496565b6138be606083018a613496565b6138cb6080830189613496565b6138d860a0830188613496565b6138e560c0830187613496565b6138f260e0830186613496565b613900610100830185613496565b61390e61012083018461346c565b9b9a5050505050505050505050565b600080fd5b600080fd5b600067ffffffffffffffff82111561394257613941613518565b5b61394b826131b0565b9050602081019050919050565b82818337600083830152505050565b600061397a61397584613927565b613578565b90508281526020810184848401111561399657613995613922565b5b6139a1848285613958565b509392505050565b600082601f8301126139be576139bd61391d565b5b81356139ce848260208601613967565b91505092915050565b600080600080608085870312156139f1576139f0612fea565b5b60006139ff8782880161334a565b9450506020613a108782880161334a565b9350506040613a2187828801613015565b925050606085013567ffffffffffffffff811115613a4257613a41612fef565b5b613a4e878288016139a9565b91505092959194509250565b6000806101608385031215613a7257613a71612fea565b5b6000613a8085828601613015565b9250506020613a91858286016135bf565b9150509250929050565b60008060408385031215613ab257613ab1612fea565b5b6000613ac08582860161334a565b9250506020613ad18582860161334a565b9150509250929050565b7f4e487b7100000000000000000000000000000000000000000000000000000000600052603260045260246000fd5b600081519050613b1981613333565b92915050565b600060208284031215613b3557613b34612fea565b5b6000613b4384828501613b0a565b91505092915050565b600067ffffffffffffffff821115613b6757613b66613518565b5b602082029050602081019050919050565b600080fd5b600081519050613b8c816136b5565b92915050565b600081519050613ba181613593565b92915050565b600060408284031215613bbd57613bbc613513565b5b613bc76040613578565b90506000613bd784828501613b7d565b6000830152506020613beb84828501613b92565b60208301525092915050565b6000613c0a613c0584613b4c565b613578565b90508083825260208201905060408402830185811115613c2d57613c2c613b78565b5b835b81811015613c565780613c428882613ba7565b845260208401935050604081019050613c2f565b5050509392505050565b600082601f830112613c7557613c7461391d565b5b8151613c85848260208601613bf7565b91505092915050565b60068110613c9b57600080fd5b50565b600081519050613cad81613c8e565b92915050565b60008060408385031215613cca57613cc9612fea565b5b600083015167ffffffffffffffff811115613ce857613ce7612fef565b5b613cf485828601613c60565b9250506020613d0585828601613c9e565b9150509250929050565b7f4e487b7100000000000000000000000000000000000000000000000000000000600052601160045260246000fd5b6000613d4982612ff4565b91507fffffffffffffffffffffffffffffffffffffffffffffffffffffffffffffffff8203613d7b57613d7a613d0f565b5b600182019050919050565b7f4e487b7100000000000000000000000000000000000000000000000000000000600052602260045260246000fd5b60006002820490506001821680613dcd57607f821691505b602082108103613de057613ddf613d86565b5b50919050565b7f4552433732313a20617070726f76616c20746f2063757272656e74206f776e6560008201527f7200000000000000000000000000000000000000000000000000000000000000602082015250565b6000613e42602183613175565b9150613e4d82613de6565b604082019050919050565b60006020820190508181036000830152613e7181613e35565b9050919050565b7f4552433732313a20617070726f76652063616c6c6572206973206e6f7420746f60008201527f6b656e206f776e6572206f7220617070726f76656420666f7220616c6c000000602082015250565b6000613ed4603d83613175565b9150613edf82613e78565b604082019050919050565b60006020820190508181036000830152613f0381613ec7565b9050919050565b7f596f7520646f206e6f74206f776e207468697320746f6b656e00000000000000600082015250565b6000613f40601983613175565b9150613f4b82613f0a565b602082019050919050565b60006020820190508181036000830152613f6f81613f33565b9050919050565b6000613f8182613057565b915060ff8203613f9457613f93613d0f565b5b600182019050919050565b6000613faa82613057565b9150613fb583613057565b9250828201905060ff811115613fce57613fcd613d0f565b5b92915050565b60008160001c9050919050565b600060ff82169050919050565b6000614001613ffc83613fd4565b613fe1565b9050919050565b60008160081c9050919050565b600061402861402383614008565b613fe1565b9050919050565b60008160101c9050919050565b600061404f61404a8361402f565b613fe1565b9050919050565b60008160181c9050919050565b600061407661407183614056565b613fe1565b9050919050565b60008160201c9050919050565b600061409d6140988361407d565b613fe1565b9050919050565b60008160281c9050919050565b60006140c46140bf836140a4565b613fe1565b9050919050565b60008160301c9050919050565b60006140eb6140e6836140cb565b613fe1565b9050919050565b60008160381c9050919050565b600061411261410d836140f2565b613fe1565b9050919050565b60008160401c9050919050565b600061413961413483614119565b613fe1565b9050919050565b6000819050919050565b600061415d61415883613fd4565b614140565b9050919050565b6101408201600080830154905061417a81613fee565b6141876000860182613064565b5061419181614015565b61419e6020860182613064565b506141a88161403c565b6141b56040860182613064565b506141bf81614063565b6141cc6060860182613064565b506141d68161408a565b6141e36080860182613064565b506141ed816140b1565b6141fa60a0860182613064565b50614204816140d8565b61421160c0860182613064565b5061421b816140ff565b61422860e0860182613064565b5061423281614126565b614240610100860182613064565b50600183015490506142518161414a565b61425f610120860182613073565b5050505050565b60006101608201905061427c600083018561346c565b6142896020830184614164565b9392505050565b60008151905061429f81612ffe565b92915050565b6000602082840312156142bb576142ba612fea565b5b60006142c984828501614290565b91505092915050565b7f4e487b7100000000000000000000000000000000000000000000000000000000600052601260045260246000fd5b600061430c82613057565b915061431783613057565b925082614327576143266142d2565b5b828206905092915050565b60006101a082019050614348600083018761346c565b6143556020830186613082565b614363610160830185613309565b81810361018083015261437681846131c1565b905095945050505050565b60008151905061439081613815565b92915050565b6000602082840312156143ac576143ab612fea565b5b60006143ba84828501614381565b91505092915050565b7f54686973206973206e6f7420612076616c69642067656172206974656d000000600082015250565b60006143f9601d83613175565b9150614404826143c3565b602082019050919050565b60006020820190508181036000830152614428816143ec565b9050919050565b7f596f7520646f206e6f74206f776e207468697320676561720000000000000000600082015250565b6000614465601883613175565b91506144708261442f565b602082019050919050565b6000602082019050818103600083015261449481614458565b9050919050565b7f496e76616c696420736c6f740000000000000000000000000000000000000000600082015250565b60006144d1600c83613175565b91506144dc8261449b565b602082019050919050565b60006020820190508181036000830152614500816144c4565b9050919050565b7f536c6f7420616c72656164792066696c6c656400000000000000000000000000600082015250565b600061453d601383613175565b915061454882614507565b602082019050919050565b6000602082019050818103600083015261456c81614530565b9050919050565b7f4e487b7100000000000000000000000000000000000000000000000000000000600052602160045260246000fd5b7f496e76616c696420736c6f7420666f7220746869732067656172000000000000600082015250565b60006145d8601a83613175565b91506145e3826145a2565b602082019050919050565b60006020820190508181036000830152614607816145cb565b9050919050565b7f4552433732313a2063616c6c6572206973206e6f7420746f6b656e206f776e6560008201527f72206f7220617070726f76656400000000000000000000000000000000000000602082015250565b600061466a602d83613175565b91506146758261460e565b604082019050919050565b600060208201905081810360008301526146998161465d565b9050919050565b7f4552433732313a20696e76616c696420746f6b656e2049440000000000000000600082015250565b60006146d6601883613175565b91506146e1826146a0565b602082019050919050565b60006020820190508181036000830152614705816146c9565b9050919050565b7f4552433732313a2061646472657373207a65726f206973206e6f74206120766160008201527f6c6964206f776e65720000000000000000000000000000000000000000000000602082015250565b6000614768602983613175565b91506147738261470c565b604082019050919050565b600060208201905081810360008301526147978161475b565b9050919050565b7f706c6179657220616c72656164792066696e616c697a65640000000000000000600082015250565b60006147d4601883613175565b91506147df8261479e565b602082019050919050565b60006020820190508181036000830152614803816147c7565b9050919050565b7f696e76616c696420706f696e747320746f207370656e64000000000000000000600082015250565b6000614840601783613175565b915061484b8261480a565b602082019050919050565b6000602082019050818103600083015261486f81614833565b9050919050565b7f696e76616c6964206c6576656c00000000000000000000000000000000000000600082015250565b60006148ac600d83613175565b91506148b782614876565b602082019050919050565b600060208201905081810360008301526148db8161489f565b9050919050565b7f696e76616c696420787000000000000000000000000000000000000000000000600082015250565b6000614918600a83613175565b9150614923826148e2565b602082019050919050565b600060208201905081810360008301526149478161490b565b9050919050565b7f696e76616c696420706f696e7420646973747269627574696f6e000000000000600082015250565b6000614984601a83613175565b915061498f8261494e565b602082019050919050565b600060208201905081810360008301526149b381614977565b9050919050565b6000610160820190506149d0600083018561346c565b6149dd6020830184613082565b9392505050565b600081905092915050565b60006149fa8261316a565b614a0481856149e4565b9350614a14818560208601613186565b80840191505092915050565b6000614a2c82856149ef565b9150614a3882846149ef565b91508190509392505050565b7f536c6f7420616c726561647920656d7074790000000000000000000000000000600082015250565b6000614a7a601283613175565b9150614a8582614a44565b602082019050919050565b60006020820190508181036000830152614aa981614a6d565b9050919050565b6000819050919050565b6000614ad5614ad0614acb84614ab0565b61339f565b612ff4565b9050919050565b614ae581614aba565b82525050565b6000606082019050614b00600083018661346c565b614b0d6020830185613309565b614b1a6040830184614adc565b949350505050565b7f4552433732313a207472616e736665722066726f6d20696e636f72726563742060008201527f6f776e6572000000000000000000000000000000000000000000000000000000602082015250565b6000614b7e602583613175565b9150614b8982614b22565b604082019050919050565b60006020820190508181036000830152614bad81614b71565b9050919050565b7f4552433732313a207472616e7366657220746f20746865207a65726f2061646460008201527f7265737300000000000000000000000000000000000000000000000000000000602082015250565b6000614c10602483613175565b9150614c1b82614bb4565b604082019050919050565b60006020820190508181036000830152614c3f81614c03565b9050919050565b7f4552433732313a20617070726f766520746f2063616c6c657200000000000000600082015250565b6000614c7c601983613175565b9150614c8782614c46565b602082019050919050565b60006020820190508181036000830152614cab81614c6f565b9050919050565b7f4552433732313a207472616e7366657220746f206e6f6e20455243373231526560008201527f63656976657220696d706c656d656e7465720000000000000000000000000000602082015250565b6000614d0e603283613175565b9150614d1982614cb2565b604082019050919050565b60006020820190508181036000830152614d3d81614d01565b9050919050565b6000614d4f82612ff4565b9150614d5a83612ff4565b9250828203905081811115614d7257614d71613d0f565b5b92915050565b6000614d8382612ff4565b9150614d8e83612ff4565b9250828201905080821115614da657614da5613d0f565b5b92915050565b600081519050919050565b600082825260208201905092915050565b6000614dd382614dac565b614ddd8185614db7565b9350614ded818560208601613186565b614df6816131b0565b840191505092915050565b6000608082019050614e166000830187613309565b614e236020830186613309565b614e30604083018561346c565b8181036060830152614e428184614dc8565b905095945050505050565b600081519050614e5c81613248565b92915050565b600060208284031215614e7857614e77612fea565b5b6000614e8684828501614e4d565b91505092915050565b7f4552433732313a206d696e7420746f20746865207a65726f2061646472657373600082015250565b6000614ec5602083613175565b9150614ed082614e8f565b602082019050919050565b60006020820190508181036000830152614ef481614eb8565b9050919050565b7f4552433732313a20746f6b656e20616c7265616479206d696e74656400000000600082015250565b6000614f31601c83613175565b9150614f3c82614efb565b602082019050919050565b60006020820190508181036000830152614f6081614f24565b905091905056fea26469706673582212201836e4f247059e6c57980f70f093ea17cd1cfe15895e9c62f707e61b1c8ba57264736f6c63430008130033",
  "linkReferences": {},
  "deployedLinkReferences": {}
}