{
  "_format": "hh-sol-artifact-1",
  "contractName": "Registry",
  "sourceName": "contracts/Registry.sol",
  "abi": [
    {
      "anonymous": false,
      "inputs": [
        {
          "indexed": false,
          "internalType": "address",
          "name": "_address",
          "type": "address"
        },
        {
          "indexed": false,
          "internalType": "enum Registry.AddType",
          "name": "_type",
          "type": "uint8"
        }
      ],
      "name": "ContractAdded",
      "type": "event"
    },
    {
      "anonymous": false,
      "inputs": [
        {
          "indexed": false,
          "internalType": "address",
          "name": "_address",
          "type": "address"
        },
        {
          "indexed": false,
          "internalType": "enum Registry.AddType",
          "name": "_type",
          "type": "uint8"
        }
      ],
      "name": "ContractRemoved",
      "type": "event"
    },
    {
      "anonymous": false,
      "inputs": [
        {
          "indexed": false,
          "internalType": "uint256",
          "name": "gearId",
          "type": "uint256"
        }
      ],
      "name": "GearAdded",
      "type": "event"
    },
    {
      "anonymous": false,
      "inputs": [
        {
          "indexed": false,
          "internalType": "uint256",
          "name": "gearId",
          "type": "uint256"
        }
      ],
      "name": "GearRemoved",
      "type": "event"
    },
    {
      "anonymous": false,
      "inputs": [
        {
          "indexed": false,
          "internalType": "uint256",
          "name": "lootBoxId",
          "type": "uint256"
        }
      ],
      "name": "LootBoxAdded",
      "type": "event"
    },
    {
      "anonymous": false,
      "inputs": [
        {
          "indexed": false,
          "internalType": "uint256",
          "name": "lootBoxId",
          "type": "uint256"
        }
      ],
      "name": "LootBoxRemoved",
      "type": "event"
    },
    {
      "anonymous": false,
      "inputs": [
        {
          "indexed": true,
          "internalType": "address",
          "name": "previousOwner",
          "type": "address"
        },
        {
          "indexed": true,
          "internalType": "address",
          "name": "newOwner",
          "type": "address"
        }
      ],
      "name": "OwnershipTransferred",
      "type": "event"
    },
    {
      "inputs": [
        {
          "internalType": "address",
          "name": "_address",
          "type": "address"
        },
        {
          "internalType": "enum Registry.AddType",
          "name": "_type",
          "type": "uint8"
        }
      ],
      "name": "addContract",
      "outputs": [],
      "stateMutability": "nonpayable",
      "type": "function"
    },
    {
      "inputs": [
        {
          "internalType": "uint256",
          "name": "gearId",
          "type": "uint256"
        }
      ],
      "name": "addGear",
      "outputs": [],
      "stateMutability": "nonpayable",
      "type": "function"
    },
    {
      "inputs": [
        {
          "internalType": "uint256",
          "name": "lootBoxId",
          "type": "uint256"
        }
      ],
      "name": "addLootBox",
      "outputs": [],
      "stateMutability": "nonpayable",
      "type": "function"
    },
    {
      "inputs": [
        {
          "internalType": "address",
          "name": "classAddress",
          "type": "address"
        }
      ],
      "name": "classes",
      "outputs": [
        {
          "internalType": "bool",
          "name": "",
          "type": "bool"
        }
      ],
      "stateMutability": "view",
      "type": "function"
    },
    {
      "inputs": [
        {
          "internalType": "address",
          "name": "dungeonAddress",
          "type": "address"
        }
      ],
      "name": "dungeons",
      "outputs": [
        {
          "internalType": "bool",
          "name": "",
          "type": "bool"
        }
      ],
      "stateMutability": "view",
      "type": "function"
    },
    {
      "inputs": [
        {
          "internalType": "uint256",
          "name": "gearId",
          "type": "uint256"
        }
      ],
      "name": "gear",
      "outputs": [
        {
          "internalType": "bool",
          "name": "",
          "type": "bool"
        }
      ],
      "stateMutability": "view",
      "type": "function"
    },
    {
      "inputs": [],
      "name": "gearContract",
      "outputs": [
        {
          "internalType": "address",
          "name": "",
          "type": "address"
        }
      ],
      "stateMutability": "view",
      "type": "function"
    },
    {
      "inputs": [
        {
          "internalType": "uint256",
          "name": "lootBoxId",
          "type": "uint256"
        }
      ],
      "name": "lootBoxes",
      "outputs": [
        {
          "internalType": "bool",
          "name": "",
          "type": "bool"
        }
      ],
      "stateMutability": "view",
      "type": "function"
    },
    {
      "inputs": [],
      "name": "owner",
      "outputs": [
        {
          "internalType": "address",
          "name": "",
          "type": "address"
        }
      ],
      "stateMutability": "view",
      "type": "function"
    },
    {
      "inputs": [
        {
          "internalType": "address",
          "name": "_address",
          "type": "address"
        },
        {
          "internalType": "enum Registry.AddType",
          "name": "_type",
          "type": "uint8"
        }
      ],
      "name": "removeContract",
      "outputs": [],
      "stateMutability": "nonpayable",
      "type": "function"
    },
    {
      "inputs": [
        {
          "internalType": "uint256",
          "name": "gearId",
          "type": "uint256"
        }
      ],
      "name": "removeGear",
      "outputs": [],
      "stateMutability": "nonpayable",
      "type": "function"
    },
    {
      "inputs": [
        {
          "internalType": "uint256",
          "name": "lootBoxId",
          "type": "uint256"
        }
      ],
      "name": "removeLootBox",
      "outputs": [],
      "stateMutability": "nonpayable",
      "type": "function"
    },
    {
      "inputs": [],
      "name": "renounceOwnership",
      "outputs": [],
      "stateMutability": "nonpayable",
      "type": "function"
    },
    {
      "inputs": [
        {
          "internalType": "address",
          "name": "_gearContract",
          "type": "address"
        }
      ],
      "name": "setGearContract",
      "outputs": [],
      "stateMutability": "nonpayable",
      "type": "function"
    },
    {
      "inputs": [
        {
          "internalType": "address",
          "name": "newOwner",
          "type": "address"
        }
      ],
      "name": "transferOwnership",
      "outputs": [],
      "stateMutability": "nonpayable",
      "type": "function"
    }
  ],
  "bytecode": "0x608060405234801561001057600080fd5b5061002d61002261003260201b60201c565b61003a60201b60201c565b6100fe565b600033905090565b60008060009054906101000a900473ffffffffffffffffffffffffffffffffffffffff169050816000806101000a81548173ffffffffffffffffffffffffffffffffffffffff021916908373ffffffffffffffffffffffffffffffffffffffff1602179055508173ffffffffffffffffffffffffffffffffffffffff168173ffffffffffffffffffffffffffffffffffffffff167f8be0079c531659141344cd1fd0a4f28419497f9722a3daafe3b4186f6b6457e060405160405180910390a35050565b610f3e8061010d6000396000f3fe608060405234801561001057600080fd5b50600436106100f55760003560e01c80638da5cb5b11610097578063bea80cea11610066578063bea80cea1461025c578063eab22cfd1461028c578063f2fde38b146102a8578063fa6ac9e1146102c4576100f5565b80638da5cb5b146101d65780639a1f2fd8146101f4578063b95f71de14610210578063bb9ec34f14610240576100f5565b80632ec66dd5116100d35780632ec66dd514610164578063715018a614610194578063724009051461019e57806389b2b52d146101ba576100f5565b806303746f17146100fa5780631fb16e271461012a57806325f04af014610146575b600080fd5b610114600480360381019061010f9190610b6e565b6102e0565b6040516101219190610bb6565b60405180910390f35b610144600480360381019061013f9190610bf6565b610300565b005b61014e6104e9565b60405161015b9190610c45565b60405180910390f35b61017e60048036038101906101799190610b6e565b61050f565b60405161018b9190610bb6565b60405180910390f35b61019c61052f565b005b6101b860048036038101906101b39190610bf6565b610543565b005b6101d460048036038101906101cf9190610c96565b610697565b005b6101de610705565b6040516101eb9190610c45565b60405180910390f35b61020e60048036038101906102099190610c96565b61072e565b005b61022a60048036038101906102259190610c96565b61079c565b6040516102379190610bb6565b60405180910390f35b61025a60048036038101906102559190610c96565b6107bc565b005b61027660048036038101906102719190610c96565b61082a565b6040516102839190610bb6565b60405180910390f35b6102a660048036038101906102a19190610c96565b61084a565b005b6102c260048036038101906102bd9190610b6e565b6108b8565b005b6102de60048036038101906102d99190610b6e565b61093b565b005b60016020528060005260406000206000915054906101000a900460ff1681565b6103086109c1565b6001600381111561031c5761031b610cc3565b5b81600381111561032f5761032e610cc3565b5b148061035f57506002600381111561034a57610349610cc3565b5b81600381111561035d5761035c610cc3565b5b145b61039e576040517f08c379a000000000000000000000000000000000000000000000000000000000815260040161039590610d4f565b60405180910390fd5b600160038111156103b2576103b1610cc3565b5b8160038111156103c5576103c4610cc3565b5b036104265760018060008473ffffffffffffffffffffffffffffffffffffffff1673ffffffffffffffffffffffffffffffffffffffff16815260200190815260200160002060006101000a81548160ff0219169083151502179055506104ac565b6002600381111561043a57610439610cc3565b5b81600381111561044d5761044c610cc3565b5b036104ab576001600260008473ffffffffffffffffffffffffffffffffffffffff1673ffffffffffffffffffffffffffffffffffffffff16815260200190815260200160002060006101000a81548160ff0219169083151502179055505b5b7fcf34fde42f79cb88d2be6f10a89602c4b3a1909211b4057ee889bd756e577b4782826040516104dd929190610db7565b60405180910390a15050565b600560009054906101000a900473ffffffffffffffffffffffffffffffffffffffff1681565b60026020528060005260406000206000915054906101000a900460ff1681565b6105376109c1565b6105416000610a3f565b565b61054b6109c1565b6001600381111561055f5761055e610cc3565b5b81600381111561057257610571610cc3565b5b036105d4576000600160008473ffffffffffffffffffffffffffffffffffffffff1673ffffffffffffffffffffffffffffffffffffffff16815260200190815260200160002060006101000a81548160ff02191690831515021790555061065a565b600260038111156105e8576105e7610cc3565b5b8160038111156105fb576105fa610cc3565b5b03610659576000600260008473ffffffffffffffffffffffffffffffffffffffff1673ffffffffffffffffffffffffffffffffffffffff16815260200190815260200160002060006101000a81548160ff0219169083151502179055505b5b7f0a6899898c3c448671e33d7bb60a0e71c7ff67e268e95c86e4d5fb72327ab148828260405161068b929190610db7565b60405180910390a15050565b61069f6109c1565b60016004600083815260200190815260200160002060006101000a81548160ff0219169083151502179055507f082f819b64a33f854b129aae364a00cf176a12a4081412ee01ac5c3b9e17f8b3816040516106fa9190610def565b60405180910390a150565b60008060009054906101000a900473ffffffffffffffffffffffffffffffffffffffff16905090565b6107366109c1565b60006004600083815260200190815260200160002060006101000a81548160ff0219169083151502179055507f8149e45119421a37ddf160d24b73cff8c915b670eb6ffbbddc16719747bd7348816040516107919190610def565b60405180910390a150565b60036020528060005260406000206000915054906101000a900460ff1681565b6107c46109c1565b60016003600083815260200190815260200160002060006101000a81548160ff0219169083151502179055507f25e7c2ceccfe5d2cc3883d53599036713abf5c79c2323c5320b1b17c49d49e858160405161081f9190610def565b60405180910390a150565b60046020528060005260406000206000915054906101000a900460ff1681565b6108526109c1565b60006003600083815260200190815260200160002060006101000a81548160ff0219169083151502179055507f99e62289b047ac4048eb307bc2ca23381076717e9e0f482ee8c4290b225e99e4816040516108ad9190610def565b60405180910390a150565b6108c06109c1565b600073ffffffffffffffffffffffffffffffffffffffff168173ffffffffffffffffffffffffffffffffffffffff160361092f576040517f08c379a000000000000000000000000000000000000000000000000000000000815260040161092690610e7c565b60405180910390fd5b61093881610a3f565b50565b6109436109c1565b80600560006101000a81548173ffffffffffffffffffffffffffffffffffffffff021916908373ffffffffffffffffffffffffffffffffffffffff1602179055507fcf34fde42f79cb88d2be6f10a89602c4b3a1909211b4057ee889bd756e577b478160036040516109b6929190610db7565b60405180910390a150565b6109c9610b03565b73ffffffffffffffffffffffffffffffffffffffff166109e7610705565b73ffffffffffffffffffffffffffffffffffffffff1614610a3d576040517f08c379a0000000000000000000000000000000000000000000000000000000008152600401610a3490610ee8565b60405180910390fd5b565b60008060009054906101000a900473ffffffffffffffffffffffffffffffffffffffff169050816000806101000a81548173ffffffffffffffffffffffffffffffffffffffff021916908373ffffffffffffffffffffffffffffffffffffffff1602179055508173ffffffffffffffffffffffffffffffffffffffff168173ffffffffffffffffffffffffffffffffffffffff167f8be0079c531659141344cd1fd0a4f28419497f9722a3daafe3b4186f6b6457e060405160405180910390a35050565b600033905090565b600080fd5b600073ffffffffffffffffffffffffffffffffffffffff82169050919050565b6000610b3b82610b10565b9050919050565b610b4b81610b30565b8114610b5657600080fd5b50565b600081359050610b6881610b42565b92915050565b600060208284031215610b8457610b83610b0b565b5b6000610b9284828501610b59565b91505092915050565b60008115159050919050565b610bb081610b9b565b82525050565b6000602082019050610bcb6000830184610ba7565b92915050565b60048110610bde57600080fd5b50565b600081359050610bf081610bd1565b92915050565b60008060408385031215610c0d57610c0c610b0b565b5b6000610c1b85828601610b59565b9250506020610c2c85828601610be1565b9150509250929050565b610c3f81610b30565b82525050565b6000602082019050610c5a6000830184610c36565b92915050565b6000819050919050565b610c7381610c60565b8114610c7e57600080fd5b50565b600081359050610c9081610c6a565b92915050565b600060208284031215610cac57610cab610b0b565b5b6000610cba84828501610c81565b91505092915050565b7f4e487b7100000000000000000000000000000000000000000000000000000000600052602160045260246000fd5b600082825260208201905092915050565b7f496e76616c696420747970650000000000000000000000000000000000000000600082015250565b6000610d39600c83610cf2565b9150610d4482610d03565b602082019050919050565b60006020820190508181036000830152610d6881610d2c565b9050919050565b60048110610d8057610d7f610cc3565b5b50565b6000819050610d9182610d6f565b919050565b6000610da182610d83565b9050919050565b610db181610d96565b82525050565b6000604082019050610dcc6000830185610c36565b610dd96020830184610da8565b9392505050565b610de981610c60565b82525050565b6000602082019050610e046000830184610de0565b92915050565b7f4f776e61626c653a206e6577206f776e657220697320746865207a65726f206160008201527f6464726573730000000000000000000000000000000000000000000000000000602082015250565b6000610e66602683610cf2565b9150610e7182610e0a565b604082019050919050565b60006020820190508181036000830152610e9581610e59565b9050919050565b7f4f776e61626c653a2063616c6c6572206973206e6f7420746865206f776e6572600082015250565b6000610ed2602083610cf2565b9150610edd82610e9c565b602082019050919050565b60006020820190508181036000830152610f0181610ec5565b905091905056fea26469706673582212208a503d60946512bfccf2d779f207e65ce58e076f7be3037399a956c6b36feb2b64736f6c63430008130033",
  "linkReferences": {},
  "deployedLinkReferences": {}
}