{
  "_format": "hh-sol-artifact-1",
  "contractName": "VRF",
  "sourceName": "contracts/VRF.sol",
  "abi": [
    {
      "inputs": [],
      "name": "getRandomNumber",
      "outputs": [
        {
          "internalType": "uint256",
          "name": "",
          "type": "uint256"
        }
      ],
      "stateMutability": "view",
      "type": "function"
    }
  ],
  "bytecode": "0x608060405234801561001057600080fd5b50610214806100206000396000f3fe608060405234801561001057600080fd5b506004361061002b5760003560e01c8063dbdff2c114610030575b600080fd5b61003861004e565b604051610045919061009a565b60405180910390f35b600043336040516020016100639291906101a7565b6040516020818303038152906040528051906020012060001c905090565b6000819050919050565b61009481610081565b82525050565b60006020820190506100af600083018461008b565b92915050565b6000819050919050565b6100d06100cb82610081565b6100b5565b82525050565b600073ffffffffffffffffffffffffffffffffffffffff82169050919050565b6000610101826100d6565b9050919050565b60008160601b9050919050565b600061012082610108565b9050919050565b600061013282610115565b9050919050565b61014a610145826100f6565b610127565b82525050565b600081905092915050565b7f7361646661736466000000000000000000000000000000000000000000000000600082015250565b6000610191600883610150565b915061019c8261015b565b600882019050919050565b60006101b382856100bf565b6020820191506101c38284610139565b6014820191506101d282610184565b9150819050939250505056fea26469706673582212209e4560133a338d11a3c9b20ebddd1bb31f1d6bac5616a5ae4e1fb9575675fca064736f6c63430008130033",
  "linkReferences": {},
  "deployedLinkReferences": {}
}